{
  "_format": "hh-sol-artifact-1",
  "contractName": "QuiniBlockUtils",
  "sourceName": "contracts/QuiniBlockUtils.sol",
  "abi": [
    {
      "inputs": [
        {
          "internalType": "uint32[6]",
          "name": "numbers",
          "type": "uint32[6]"
        }
      ],
      "name": "areUniqueNumbers",
      "outputs": [
        {
          "internalType": "bool",
          "name": "",
          "type": "bool"
        }
      ],
      "stateMutability": "pure",
      "type": "function"
    },
    {
      "inputs": [
        {
          "internalType": "uint32[6]",
          "name": "numbers",
          "type": "uint32[6]"
        }
      ],
      "name": "areValidNumbers",
      "outputs": [
        {
          "internalType": "bool",
          "name": "",
          "type": "bool"
        }
      ],
      "stateMutability": "pure",
      "type": "function"
    },
    {
      "inputs": [
        {
          "internalType": "uint32[6]",
          "name": "numbers1",
          "type": "uint32[6]"
        },
        {
          "internalType": "uint32[6]",
          "name": "numbers2",
          "type": "uint32[6]"
        }
      ],
      "name": "compareNumbers",
      "outputs": [
        {
          "internalType": "bool",
          "name": "",
          "type": "bool"
        }
      ],
      "stateMutability": "pure",
      "type": "function"
    },
    {
      "inputs": [
        {
          "internalType": "uint32[6]",
          "name": "numbers",
          "type": "uint32[6]"
        }
      ],
      "name": "orderNumbers",
      "outputs": [
        {
          "internalType": "uint32[6]",
          "name": "",
          "type": "uint32[6]"
        }
      ],
      "stateMutability": "pure",
      "type": "function"
    }
  ],
  "bytecode": "0x608060405234801561001057600080fd5b50610a04806100206000396000f3fe608060405234801561001057600080fd5b506004361061004c5760003560e01c80635133271014610051578063c2f588e014610081578063f33db7c8146100b1578063f86341a9146100e1575b600080fd5b61006b60048036038101906100669190610640565b610111565b6040516100789190610718565b60405180910390f35b61009b60048036038101906100969190610640565b61023d565b6040516100a8919061074e565b60405180910390f35b6100cb60048036038101906100c69190610640565b610333565b6040516100d8919061074e565b60405180910390f35b6100fb60048036038101906100f69190610769565b610408565b604051610108919061074e565b60405180910390f35b61011961048c565b60005b6001600661012a91906107e3565b8110156102345760006001826101409190610817565b90505b60068110156102265783816006811061015f5761015e61084b565b5b602002015163ffffffff1684836006811061017d5761017c61084b565b5b602002015163ffffffff1611156102195760008483600681106101a3576101a261084b565b5b602002015190508482600681106101bd576101bc61084b565b5b60200201518584600681106101d5576101d461084b565b5b602002019063ffffffff16908163ffffffff168152505080858360068110610200576101ff61084b565b5b602002019063ffffffff16908163ffffffff1681525050505b8080600101915050610143565b50808060010191505061011c565b50819050919050565b600060068014610282576040517f08c379a0000000000000000000000000000000000000000000000000000000008152600401610279906108d7565b60405180910390fd5b60005b60068160ff1610156103285760006001826102a09190610904565b90505b60068160ff16101561031457838160ff16600681106102c5576102c461084b565b5b602002015163ffffffff16848360ff16600681106102e6576102e561084b565b5b602002015163ffffffff16036103015760009250505061032e565b808061030c90610939565b9150506102a3565b50808061032090610939565b915050610285565b50600190505b919050565b600061033e8261023d565b61037d576040517f08c379a0000000000000000000000000000000000000000000000000000000008152600401610374906109ae565b60405180910390fd5b60005b60068160ff1610156103fd576000838260ff16600681106103a4576103a361084b565b5b602002015163ffffffff1610806103db5750602d838260ff16600681106103ce576103cd61084b565b5b602002015163ffffffff16115b156103ea576000915050610403565b80806103f590610939565b915050610380565b50600190505b919050565b600080600090505b60068160ff16101561048057828160ff16600681106104325761043161084b565b5b602002015163ffffffff16848260ff16600681106104535761045261084b565b5b602002015163ffffffff161461046d576000915050610486565b808061047890610939565b915050610410565b50600190505b92915050565b6040518060c00160405280600690602082028036833780820191505090505090565b6000604051905090565b600080fd5b600080fd5b6000601f19601f8301169050919050565b7f4e487b7100000000000000000000000000000000000000000000000000000000600052604160045260246000fd5b61050b826104c2565b810181811067ffffffffffffffff8211171561052a576105296104d3565b5b80604052505050565b600061053d6104ae565b90506105498282610502565b919050565b600067ffffffffffffffff821115610569576105686104d3565b5b602082029050919050565b600080fd5b600063ffffffff82169050919050565b61059281610579565b811461059d57600080fd5b50565b6000813590506105af81610589565b92915050565b60006105c86105c38461054e565b610533565b905080602084028301858111156105e2576105e1610574565b5b835b8181101561060b57806105f788826105a0565b8452602084019350506020810190506105e4565b5050509392505050565b600082601f83011261062a576106296104bd565b5b60066106378482856105b5565b91505092915050565b600060c08284031215610656576106556104b8565b5b600061066484828501610615565b91505092915050565b600060069050919050565b600081905092915050565b6000819050919050565b61069681610579565b82525050565b60006106a8838361068d565b60208301905092915050565b6000602082019050919050565b6106ca8161066d565b6106d48184610678565b92506106df82610683565b8060005b838110156107105781516106f7878261069c565b9650610702836106b4565b9250506001810190506106e3565b505050505050565b600060c08201905061072d60008301846106c1565b92915050565b60008115159050919050565b61074881610733565b82525050565b6000602082019050610763600083018461073f565b92915050565b6000806101808385031215610781576107806104b8565b5b600061078f85828601610615565b92505060c06107a085828601610615565b9150509250929050565b6000819050919050565b7f4e487b7100000000000000000000000000000000000000000000000000000000600052601160045260246000fd5b60006107ee826107aa565b91506107f9836107aa565b9250828203905081811115610811576108106107b4565b5b92915050565b6000610822826107aa565b915061082d836107aa565b9250828201905080821115610845576108446107b4565b5b92915050565b7f4e487b7100000000000000000000000000000000000000000000000000000000600052603260045260246000fd5b600082825260208201905092915050565b7f496e76616c6964206e756d626572206f662063686f73656e206e756d62657273600082015250565b60006108c160208361087a565b91506108cc8261088b565b602082019050919050565b600060208201905081810360008301526108f0816108b4565b9050919050565b600060ff82169050919050565b600061090f826108f7565b915061091a836108f7565b9250828201905060ff811115610933576109326107b4565b5b92915050565b6000610944826108f7565b915060ff8203610957576109566107b4565b5b600182019050919050565b7f546865204e756d62657273206d75737420626520756e69717565000000000000600082015250565b6000610998601a8361087a565b91506109a382610962565b602082019050919050565b600060208201905081810360008301526109c78161098b565b905091905056fea2646970667358221220643c8c98701b2d4afebd2e05d637feb6c169a7d43a84ed82947950039fea594364736f6c63430008180033",
  "linkReferences": {},
  "deployedLinkReferences": {}
}