{
  "_format": "hh-sol-artifact-1",
  "contractName": "QuiniBlockPotManager",
  "sourceName": "contracts/QuiniBlockPotManager.sol",
  "abi": [
    {
      "inputs": [
        {
          "internalType": "address",
          "name": "target",
          "type": "address"
        }
      ],
      "name": "AddressEmptyCode",
      "type": "error"
    },
    {
      "inputs": [
        {
          "internalType": "address",
          "name": "implementation",
          "type": "address"
        }
      ],
      "name": "ERC1967InvalidImplementation",
      "type": "error"
    },
    {
      "inputs": [],
      "name": "ERC1967NonPayable",
      "type": "error"
    },
    {
      "inputs": [],
      "name": "EnforcedPause",
      "type": "error"
    },
    {
      "inputs": [],
      "name": "ExpectedPause",
      "type": "error"
    },
    {
      "inputs": [],
      "name": "FailedInnerCall",
      "type": "error"
    },
    {
      "inputs": [],
      "name": "InvalidInitialization",
      "type": "error"
    },
    {
      "inputs": [],
      "name": "NotInitializing",
      "type": "error"
    },
    {
      "inputs": [
        {
          "internalType": "address",
          "name": "owner",
          "type": "address"
        }
      ],
      "name": "OwnableInvalidOwner",
      "type": "error"
    },
    {
      "inputs": [
        {
          "internalType": "address",
          "name": "account",
          "type": "address"
        }
      ],
      "name": "OwnableUnauthorizedAccount",
      "type": "error"
    },
    {
      "inputs": [],
      "name": "ReentrancyGuardReentrantCall",
      "type": "error"
    },
    {
      "inputs": [],
      "name": "UUPSUnauthorizedCallContext",
      "type": "error"
    },
    {
      "inputs": [
        {
          "internalType": "bytes32",
          "name": "slot",
          "type": "bytes32"
        }
      ],
      "name": "UUPSUnsupportedProxiableUUID",
      "type": "error"
    },
    {
      "anonymous": false,
      "inputs": [
        {
          "indexed": false,
          "internalType": "uint256",
          "name": "newPrimaryPot",
          "type": "uint256"
        },
        {
          "indexed": false,
          "internalType": "uint256",
          "name": "newSecondaryPot",
          "type": "uint256"
        }
      ],
      "name": "AdjustPots",
      "type": "event"
    },
    {
      "anonymous": false,
      "inputs": [
        {
          "indexed": false,
          "internalType": "uint256",
          "name": "totalIncrement",
          "type": "uint256"
        },
        {
          "indexed": false,
          "internalType": "uint256",
          "name": "primaryIncrement",
          "type": "uint256"
        },
        {
          "indexed": false,
          "internalType": "uint256",
          "name": "secondaryIncrement",
          "type": "uint256"
        },
        {
          "indexed": false,
          "internalType": "uint256",
          "name": "reserveIncrement",
          "type": "uint256"
        }
      ],
      "name": "IncrementedPot",
      "type": "event"
    },
    {
      "anonymous": false,
      "inputs": [
        {
          "indexed": false,
          "internalType": "uint64",
          "name": "version",
          "type": "uint64"
        }
      ],
      "name": "Initialized",
      "type": "event"
    },
    {
      "anonymous": false,
      "inputs": [
        {
          "indexed": true,
          "internalType": "address",
          "name": "previousOwner",
          "type": "address"
        },
        {
          "indexed": true,
          "internalType": "address",
          "name": "newOwner",
          "type": "address"
        }
      ],
      "name": "OwnershipTransferred",
      "type": "event"
    },
    {
      "anonymous": false,
      "inputs": [
        {
          "indexed": false,
          "internalType": "address",
          "name": "account",
          "type": "address"
        }
      ],
      "name": "Paused",
      "type": "event"
    },
    {
      "anonymous": false,
      "inputs": [
        {
          "indexed": false,
          "internalType": "uint8",
          "name": "primaryPotPercentage",
          "type": "uint8"
        },
        {
          "indexed": false,
          "internalType": "uint8",
          "name": "secondaryPotPercentage",
          "type": "uint8"
        },
        {
          "indexed": false,
          "internalType": "uint8",
          "name": "reservePotPercentage",
          "type": "uint8"
        }
      ],
      "name": "SetPotPercentages",
      "type": "event"
    },
    {
      "anonymous": false,
      "inputs": [
        {
          "indexed": false,
          "internalType": "uint256",
          "name": "primaryPot",
          "type": "uint256"
        },
        {
          "indexed": false,
          "internalType": "uint256",
          "name": "secondaryPot",
          "type": "uint256"
        },
        {
          "indexed": false,
          "internalType": "uint256",
          "name": "reservePot",
          "type": "uint256"
        }
      ],
      "name": "SetPotValues",
      "type": "event"
    },
    {
      "anonymous": false,
      "inputs": [
        {
          "indexed": false,
          "internalType": "address",
          "name": "account",
          "type": "address"
        }
      ],
      "name": "Unpaused",
      "type": "event"
    },
    {
      "anonymous": false,
      "inputs": [
        {
          "indexed": true,
          "internalType": "address",
          "name": "implementation",
          "type": "address"
        }
      ],
      "name": "Upgraded",
      "type": "event"
    },
    {
      "inputs": [],
      "name": "UPGRADE_INTERFACE_VERSION",
      "outputs": [
        {
          "internalType": "string",
          "name": "",
          "type": "string"
        }
      ],
      "stateMutability": "view",
      "type": "function"
    },
    {
      "inputs": [
        {
          "internalType": "uint32[6]",
          "name": "numbers",
          "type": "uint32[6]"
        }
      ],
      "name": "areUniqueNumbers",
      "outputs": [
        {
          "internalType": "bool",
          "name": "",
          "type": "bool"
        }
      ],
      "stateMutability": "pure",
      "type": "function"
    },
    {
      "inputs": [
        {
          "internalType": "uint32[6]",
          "name": "numbers",
          "type": "uint32[6]"
        }
      ],
      "name": "areValidNumbers",
      "outputs": [
        {
          "internalType": "bool",
          "name": "",
          "type": "bool"
        }
      ],
      "stateMutability": "pure",
      "type": "function"
    },
    {
      "inputs": [],
      "name": "basePotValue",
      "outputs": [
        {
          "internalType": "uint256",
          "name": "",
          "type": "uint256"
        }
      ],
      "stateMutability": "view",
      "type": "function"
    },
    {
      "inputs": [
        {
          "internalType": "uint32[6]",
          "name": "numbers1",
          "type": "uint32[6]"
        },
        {
          "internalType": "uint32[6]",
          "name": "numbers2",
          "type": "uint32[6]"
        }
      ],
      "name": "compareNumbers",
      "outputs": [
        {
          "internalType": "bool",
          "name": "",
          "type": "bool"
        }
      ],
      "stateMutability": "pure",
      "type": "function"
    },
    {
      "inputs": [
        {
          "internalType": "uint256",
          "name": "_basePotValue",
          "type": "uint256"
        },
        {
          "internalType": "address",
          "name": "initialOwner",
          "type": "address"
        }
      ],
      "name": "initialize",
      "outputs": [],
      "stateMutability": "nonpayable",
      "type": "function"
    },
    {
      "inputs": [
        {
          "internalType": "uint32[6]",
          "name": "numbers",
          "type": "uint32[6]"
        }
      ],
      "name": "orderNumbers",
      "outputs": [
        {
          "internalType": "uint32[6]",
          "name": "",
          "type": "uint32[6]"
        }
      ],
      "stateMutability": "pure",
      "type": "function"
    },
    {
      "inputs": [],
      "name": "owner",
      "outputs": [
        {
          "internalType": "address",
          "name": "",
          "type": "address"
        }
      ],
      "stateMutability": "view",
      "type": "function"
    },
    {
      "inputs": [],
      "name": "pause",
      "outputs": [],
      "stateMutability": "nonpayable",
      "type": "function"
    },
    {
      "inputs": [],
      "name": "paused",
      "outputs": [
        {
          "internalType": "bool",
          "name": "",
          "type": "bool"
        }
      ],
      "stateMutability": "view",
      "type": "function"
    },
    {
      "inputs": [],
      "name": "primaryPot",
      "outputs": [
        {
          "internalType": "uint256",
          "name": "",
          "type": "uint256"
        }
      ],
      "stateMutability": "view",
      "type": "function"
    },
    {
      "inputs": [],
      "name": "primaryPotPercentage",
      "outputs": [
        {
          "internalType": "uint8",
          "name": "",
          "type": "uint8"
        }
      ],
      "stateMutability": "view",
      "type": "function"
    },
    {
      "inputs": [],
      "name": "proxiableUUID",
      "outputs": [
        {
          "internalType": "bytes32",
          "name": "",
          "type": "bytes32"
        }
      ],
      "stateMutability": "view",
      "type": "function"
    },
    {
      "inputs": [],
      "name": "renounceOwnership",
      "outputs": [],
      "stateMutability": "nonpayable",
      "type": "function"
    },
    {
      "inputs": [],
      "name": "reservePot",
      "outputs": [
        {
          "internalType": "uint256",
          "name": "",
          "type": "uint256"
        }
      ],
      "stateMutability": "view",
      "type": "function"
    },
    {
      "inputs": [],
      "name": "reservePotPercentage",
      "outputs": [
        {
          "internalType": "uint8",
          "name": "",
          "type": "uint8"
        }
      ],
      "stateMutability": "view",
      "type": "function"
    },
    {
      "inputs": [],
      "name": "secondaryPot",
      "outputs": [
        {
          "internalType": "uint256",
          "name": "",
          "type": "uint256"
        }
      ],
      "stateMutability": "view",
      "type": "function"
    },
    {
      "inputs": [],
      "name": "secondaryPotPercentage",
      "outputs": [
        {
          "internalType": "uint8",
          "name": "",
          "type": "uint8"
        }
      ],
      "stateMutability": "view",
      "type": "function"
    },
    {
      "inputs": [
        {
          "internalType": "uint256",
          "name": "_basePotValue",
          "type": "uint256"
        }
      ],
      "name": "setBasePotValue",
      "outputs": [],
      "stateMutability": "nonpayable",
      "type": "function"
    },
    {
      "inputs": [
        {
          "internalType": "uint8",
          "name": "_primaryPotPercentage",
          "type": "uint8"
        },
        {
          "internalType": "uint8",
          "name": "_secondaryPotPercentage",
          "type": "uint8"
        },
        {
          "internalType": "uint8",
          "name": "_reservePotPercentage",
          "type": "uint8"
        }
      ],
      "name": "setPotPercentages",
      "outputs": [],
      "stateMutability": "nonpayable",
      "type": "function"
    },
    {
      "inputs": [
        {
          "internalType": "uint256",
          "name": "_primaryPot",
          "type": "uint256"
        },
        {
          "internalType": "uint256",
          "name": "_secondaryPot",
          "type": "uint256"
        },
        {
          "internalType": "uint256",
          "name": "_reservePot",
          "type": "uint256"
        }
      ],
      "name": "setPotValues",
      "outputs": [],
      "stateMutability": "nonpayable",
      "type": "function"
    },
    {
      "inputs": [
        {
          "internalType": "address",
          "name": "newOwner",
          "type": "address"
        }
      ],
      "name": "transferOwnership",
      "outputs": [],
      "stateMutability": "nonpayable",
      "type": "function"
    },
    {
      "inputs": [],
      "name": "unpause",
      "outputs": [],
      "stateMutability": "nonpayable",
      "type": "function"
    },
    {
      "inputs": [
        {
          "internalType": "address",
          "name": "newImplementation",
          "type": "address"
        },
        {
          "internalType": "bytes",
          "name": "data",
          "type": "bytes"
        }
      ],
      "name": "upgradeToAndCall",
      "outputs": [],
      "stateMutability": "payable",
      "type": "function"
    },
    {
      "inputs": [
        {
          "internalType": "uint256",
          "name": "primaryAmount",
          "type": "uint256"
        },
        {
          "internalType": "uint256",
          "name": "secondaryAmount",
          "type": "uint256"
        },
        {
          "internalType": "uint256",
          "name": "reserveAmount",
          "type": "uint256"
        }
      ],
      "name": "validateFunds",
      "outputs": [
        {
          "internalType": "bool",
          "name": "",
          "type": "bool"
        }
      ],
      "stateMutability": "view",
      "type": "function"
    },
    {
      "inputs": [
        {
          "internalType": "uint256",
          "name": "primaryAmount",
          "type": "uint256"
        }
      ],
      "name": "validateFundsPrimary",
      "outputs": [
        {
          "internalType": "bool",
          "name": "",
          "type": "bool"
        }
      ],
      "stateMutability": "view",
      "type": "function"
    },
    {
      "inputs": [
        {
          "internalType": "uint256",
          "name": "reserveAmount",
          "type": "uint256"
        }
      ],
      "name": "validateFundsReserve",
      "outputs": [
        {
          "internalType": "bool",
          "name": "",
          "type": "bool"
        }
      ],
      "stateMutability": "view",
      "type": "function"
    },
    {
      "inputs": [
        {
          "internalType": "uint256",
          "name": "secondaryAmount",
          "type": "uint256"
        }
      ],
      "name": "validateFundsSecondary",
      "outputs": [
        {
          "internalType": "bool",
          "name": "",
          "type": "bool"
        }
      ],
      "stateMutability": "view",
      "type": "function"
    },
    {
      "stateMutability": "payable",
      "type": "receive"
    }
  ],
  "bytecode": "0x60a06040523073ffffffffffffffffffffffffffffffffffffffff1660809073ffffffffffffffffffffffffffffffffffffffff1681525034801561004357600080fd5b5060805161261b61006d600039600081816111370152818161118c0152611347015261261b6000f3fe6080604052600436106101bb5760003560e01c80638456cb59116100ec578063db406f4c1161008a578063f7ae1d1311610064578063f7ae1d13146105e8578063f86341a914610611578063f97cc8901461064e578063f9b5c74b14610679576101c2565b8063db406f4c14610559578063f2fde38b14610582578063f33db7c8146105ab576101c2565b8063ad3cb1cc116100c6578063ad3cb1cc1461048b578063c03d9db8146104b6578063c2f588e0146104f3578063da35a26f14610530576101c2565b80638456cb59146104205780638da5cb5b146104375780639600387014610462576101c2565b806351332710116101595780635c975abb116101335780635c975abb1461037657806362852616146103a1578063715018a6146103cc578063771d35da146103e3576101c2565b806351332710146102d157806352d1902d1461030e5780635309eb5614610339576101c2565b806324d473351161019557806324d473351461024857806335951bd7146102735780633f4ba83a1461029e5780634f1ef286146102b5576101c2565b8063023c5163146101c7578063081287d2146101f257806312a1ad5f1461021d576101c2565b366101c257005b600080fd5b3480156101d357600080fd5b506101dc6106b6565b6040516101e99190611a8b565b60405180910390f35b3480156101fe57600080fd5b506102076106bc565b6040516102149190611ac2565b60405180910390f35b34801561022957600080fd5b506102326106cf565b60405161023f9190611ac2565b60405180910390f35b34801561025457600080fd5b5061025d6106e2565b60405161026a9190611a8b565b60405180910390f35b34801561027f57600080fd5b506102886106e8565b6040516102959190611a8b565b60405180910390f35b3480156102aa57600080fd5b506102b36106ee565b005b6102cf60048036038101906102ca9190611c95565b61071b565b005b3480156102dd57600080fd5b506102f860048036038101906102f39190611de3565b61073a565b6040516103059190611ebb565b60405180910390f35b34801561031a57600080fd5b50610323610866565b6040516103309190611eef565b60405180910390f35b34801561034557600080fd5b50610360600480360381019061035b9190611f36565b610899565b60405161036d9190611f7e565b60405180910390f35b34801561038257600080fd5b5061038b6108a8565b6040516103989190611f7e565b60405180910390f35b3480156103ad57600080fd5b506103b66108cd565b6040516103c39190611a8b565b60405180910390f35b3480156103d857600080fd5b506103e16108d3565b005b3480156103ef57600080fd5b5061040a60048036038101906104059190611f99565b6108e7565b6040516104179190611f7e565b60405180910390f35b34801561042c57600080fd5b50610435610941565b005b34801561044357600080fd5b5061044c61096e565b6040516104599190611ffb565b60405180910390f35b34801561046e57600080fd5b5061048960048036038101906104849190611f36565b6109a6565b005b34801561049757600080fd5b506104a06109c0565b6040516104ad9190612095565b60405180910390f35b3480156104c257600080fd5b506104dd60048036038101906104d89190611f36565b6109f9565b6040516104ea9190611f7e565b60405180910390f35b3480156104ff57600080fd5b5061051a60048036038101906105159190611de3565b610a08565b6040516105279190611f7e565b60405180910390f35b34801561053c57600080fd5b50610557600480360381019061055291906120b7565b610afe565b005b34801561056557600080fd5b50610580600480360381019061057b9190611f99565b610ca6565b005b34801561058e57600080fd5b506105a960048036038101906105a491906120f7565b610d11565b005b3480156105b757600080fd5b506105d260048036038101906105cd9190611de3565b610d97565b6040516105df9190611f7e565b60405180910390f35b3480156105f457600080fd5b5061060f600480360381019061060a9190612150565b610e6c565b005b34801561061d57600080fd5b50610638600480360381019061063391906121a3565b610f96565b6040516106459190611f7e565b60405180910390f35b34801561065a57600080fd5b5061066361101a565b6040516106709190611ac2565b60405180910390f35b34801561068557600080fd5b506106a0600480360381019061069b9190611f36565b61102d565b6040516106ad9190611f7e565b60405180910390f35b60005481565b600460029054906101000a900460ff1681565b600460019054906101000a900460ff1681565b60035481565b60025481565b6106f661103c565b6106fe6110c3565b6000600460036101000a81548160ff021916908315150217905550565b610723611135565b61072c8261121b565b6107368282611226565b5050565b610742611a50565b60005b600160066107539190612213565b81101561085d5760006001826107699190612247565b90505b600681101561084f578381600681106107885761078761227b565b5b602002015163ffffffff168483600681106107a6576107a561227b565b5b602002015163ffffffff1611156108425760008483600681106107cc576107cb61227b565b5b602002015190508482600681106107e6576107e561227b565b5b60200201518584600681106107fe576107fd61227b565b5b602002019063ffffffff16908163ffffffff1681525050808583600681106108295761082861227b565b5b602002019063ffffffff16908163ffffffff1681525050505b808060010191505061076c565b508080600101915050610745565b50819050919050565b6000610870611345565b7f360894a13ba1a3210667c828492db98dca3e2076cc3735a920a3ca505d382bbc60001b905090565b60008160025410159050919050565b6000806108b36113cc565b90508060000160009054906101000a900460ff1691505090565b60015481565b6108db61103c565b6108e560006113f4565b565b60008047905060008385876108fc9190612247565b6109069190612247565b9050856000541015801561091c57508460015410155b801561092a57508360025410155b80156109365750818111155b925050509392505050565b61094961103c565b6109516114cb565b6001600460036101000a81548160ff021916908315150217905550565b60008061097961153d565b90508060000160009054906101000a900473ffffffffffffffffffffffffffffffffffffffff1691505090565b6109ae61103c565b6109b6611565565b8060038190555050565b6040518060400160405280600581526020017f352e302e3000000000000000000000000000000000000000000000000000000081525081565b60008160005410159050919050565b600060068014610a4d576040517f08c379a0000000000000000000000000000000000000000000000000000000008152600401610a44906122f6565b60405180910390fd5b60005b60068160ff161015610af3576000600182610a6b9190612316565b90505b60068160ff161015610adf57838160ff1660068110610a9057610a8f61227b565b5b602002015163ffffffff16848360ff1660068110610ab157610ab061227b565b5b602002015163ffffffff1603610acc57600092505050610af9565b8080610ad79061234b565b915050610a6e565b508080610aeb9061234b565b915050610a50565b50600190505b919050565b6000610b086115a6565b905060008160000160089054906101000a900460ff1615905060008260000160009054906101000a900467ffffffffffffffff1690506000808267ffffffffffffffff16148015610b565750825b9050600060018367ffffffffffffffff16148015610b8b575060003073ffffffffffffffffffffffffffffffffffffffff163b145b905081158015610b99575080155b15610bd0576040517ff92ee8a900000000000000000000000000000000000000000000000000000000815260040160405180910390fd5b60018560000160006101000a81548167ffffffffffffffff021916908367ffffffffffffffff1602179055508315610c205760018560000160086101000a81548160ff0219169083151502179055505b610c29866115ce565b86600381905550600354600081905550610c416115e2565b8315610c9d5760008560000160086101000a81548160ff0219169083151502179055507fc7f505b2f371ae2175ee4913f4499e1f2633a7b5936321eed1cdaeb6115181d26001604051610c9491906123cd565b60405180910390a15b50505050505050565b610cae61103c565b610cb6611565565b8260008190555081600181905550806002819055507f2894826e6558498e1dde97b7dd9f16a72afe0133fb00dc60ab3bf2d75576a323600054600154600254604051610d04939291906123e8565b60405180910390a1505050565b610d1961103c565b600073ffffffffffffffffffffffffffffffffffffffff168173ffffffffffffffffffffffffffffffffffffffff1603610d8b5760006040517f1e4fbdf7000000000000000000000000000000000000000000000000000000008152600401610d829190611ffb565b60405180910390fd5b610d94816113f4565b50565b6000610da282610a08565b610de1576040517f08c379a0000000000000000000000000000000000000000000000000000000008152600401610dd89061246b565b60405180910390fd5b60005b60068160ff161015610e61576000838260ff1660068110610e0857610e0761227b565b5b602002015163ffffffff161080610e3f5750602d838260ff1660068110610e3257610e3161227b565b5b602002015163ffffffff16115b15610e4e576000915050610e67565b8080610e599061234b565b915050610de4565b50600190505b919050565b610e7461103c565b610e7c611565565b6064818385610e8b9190612316565b610e959190612316565b60ff1614610ed8576040517f08c379a0000000000000000000000000000000000000000000000000000000008152600401610ecf906124d7565b60405180910390fd5b82600460006101000a81548160ff021916908360ff16021790555081600460016101000a81548160ff021916908360ff16021790555080600460026101000a81548160ff021916908360ff1602179055507f2a67f664c6a4cf35c0d00d41f88c08dff5774f0a86618595a568ed4fceea5a03600460009054906101000a900460ff16600460019054906101000a900460ff16600460029054906101000a900460ff16604051610f89939291906124f7565b60405180910390a1505050565b600080600090505b60068160ff16101561100e57828160ff1660068110610fc057610fbf61227b565b5b602002015163ffffffff16848260ff1660068110610fe157610fe061227b565b5b602002015163ffffffff1614610ffb576000915050611014565b80806110069061234b565b915050610f9e565b50600190505b92915050565b600460009054906101000a900460ff1681565b60008160015410159050919050565b6110446115ec565b73ffffffffffffffffffffffffffffffffffffffff1661106261096e565b73ffffffffffffffffffffffffffffffffffffffff16146110c1576110856115ec565b6040517f118cdaa70000000000000000000000000000000000000000000000000000000081526004016110b89190611ffb565b60405180910390fd5b565b6110cb6115f4565b60006110d56113cc565b905060008160000160006101000a81548160ff0219169083151502179055507f5db9ee0a495bf2e6ff9c91a7834c1ba4fdd244a5e8aa4e537bd38aeae4b073aa61111d6115ec565b60405161112a9190611ffb565b60405180910390a150565b7f000000000000000000000000000000000000000000000000000000000000000073ffffffffffffffffffffffffffffffffffffffff163073ffffffffffffffffffffffffffffffffffffffff1614806111e257507f000000000000000000000000000000000000000000000000000000000000000073ffffffffffffffffffffffffffffffffffffffff166111c9611634565b73ffffffffffffffffffffffffffffffffffffffff1614155b15611219576040517fe07c8dba00000000000000000000000000000000000000000000000000000000815260040160405180910390fd5b565b61122361103c565b50565b8173ffffffffffffffffffffffffffffffffffffffff166352d1902d6040518163ffffffff1660e01b8152600401602060405180830381865afa92505050801561128e57506040513d601f19601f8201168201806040525081019061128b919061255a565b60015b6112cf57816040517f4c9c8ce30000000000000000000000000000000000000000000000000000000081526004016112c69190611ffb565b60405180910390fd5b7f360894a13ba1a3210667c828492db98dca3e2076cc3735a920a3ca505d382bbc60001b811461133657806040517faa1d49a400000000000000000000000000000000000000000000000000000000815260040161132d9190611eef565b60405180910390fd5b611340838361168b565b505050565b7f000000000000000000000000000000000000000000000000000000000000000073ffffffffffffffffffffffffffffffffffffffff163073ffffffffffffffffffffffffffffffffffffffff16146113ca576040517fe07c8dba00000000000000000000000000000000000000000000000000000000815260040160405180910390fd5b565b60007fcd5ed15c6e187e77e9aee88184c21f4f2182ab5827cb3b7e07fbedcd63f03300905090565b60006113fe61153d565b905060008160000160009054906101000a900473ffffffffffffffffffffffffffffffffffffffff169050828260000160006101000a81548173ffffffffffffffffffffffffffffffffffffffff021916908373ffffffffffffffffffffffffffffffffffffffff1602179055508273ffffffffffffffffffffffffffffffffffffffff168173ffffffffffffffffffffffffffffffffffffffff167f8be0079c531659141344cd1fd0a4f28419497f9722a3daafe3b4186f6b6457e060405160405180910390a3505050565b6114d3611565565b60006114dd6113cc565b905060018160000160006101000a81548160ff0219169083151502179055507f62e78cea01bee320cd4e420270b5ea74000d11b0c9f74754ebdbfc544b05a2586115256115ec565b6040516115329190611ffb565b60405180910390a150565b60007f9016d09d72d40fdae2fd8ceac6b6234c7706214fd39c1cd1e609a0528c199300905090565b61156d6108a8565b156115a4576040517fd93c066500000000000000000000000000000000000000000000000000000000815260040160405180910390fd5b565b60007ff0c57e16840df040f15088dc2f81fe391c3923bec73e23a9662efc9c229c6a00905090565b6115d66116fe565b6115df8161173e565b50565b6115ea6116fe565b565b600033905090565b6115fc6108a8565b611632576040517f8dfc202b00000000000000000000000000000000000000000000000000000000815260040160405180910390fd5b565b60006116627f360894a13ba1a3210667c828492db98dca3e2076cc3735a920a3ca505d382bbc60001b6117c4565b60000160009054906101000a900473ffffffffffffffffffffffffffffffffffffffff16905090565b611694826117ce565b8173ffffffffffffffffffffffffffffffffffffffff167fbc7cd75a20ee27fd9adebab32041f755214dbc6bffa90cc0225b39da2e5c2d3b60405160405180910390a26000815111156116f1576116eb828261189b565b506116fa565b6116f961191f565b5b5050565b61170661195c565b61173c576040517fd7e6bcf800000000000000000000000000000000000000000000000000000000815260040160405180910390fd5b565b6117466116fe565b600073ffffffffffffffffffffffffffffffffffffffff168173ffffffffffffffffffffffffffffffffffffffff16036117b85760006040517f1e4fbdf70000000000000000000000000000000000000000000000000000000081526004016117af9190611ffb565b60405180910390fd5b6117c1816113f4565b50565b6000819050919050565b60008173ffffffffffffffffffffffffffffffffffffffff163b0361182a57806040517f4c9c8ce30000000000000000000000000000000000000000000000000000000081526004016118219190611ffb565b60405180910390fd5b806118577f360894a13ba1a3210667c828492db98dca3e2076cc3735a920a3ca505d382bbc60001b6117c4565b60000160006101000a81548173ffffffffffffffffffffffffffffffffffffffff021916908373ffffffffffffffffffffffffffffffffffffffff16021790555050565b60606000808473ffffffffffffffffffffffffffffffffffffffff16846040516118c591906125ce565b600060405180830381855af49150503d8060008114611900576040519150601f19603f3d011682016040523d82523d6000602084013e611905565b606091505b509150915061191585838361197c565b9250505092915050565b600034111561195a576040517fb398979f00000000000000000000000000000000000000000000000000000000815260040160405180910390fd5b565b60006119666115a6565b60000160089054906101000a900460ff16905090565b6060826119915761198c82611a0b565b611a03565b600082511480156119b9575060008473ffffffffffffffffffffffffffffffffffffffff163b145b156119fb57836040517f9996b3150000000000000000000000000000000000000000000000000000000081526004016119f29190611ffb565b60405180910390fd5b819050611a04565b5b9392505050565b600081511115611a1e5780518082602001fd5b6040517f1425ea4200000000000000000000000000000000000000000000000000000000815260040160405180910390fd5b6040518060c00160405280600690602082028036833780820191505090505090565b6000819050919050565b611a8581611a72565b82525050565b6000602082019050611aa06000830184611a7c565b92915050565b600060ff82169050919050565b611abc81611aa6565b82525050565b6000602082019050611ad76000830184611ab3565b92915050565b6000604051905090565b600080fd5b600080fd5b600073ffffffffffffffffffffffffffffffffffffffff82169050919050565b6000611b1c82611af1565b9050919050565b611b2c81611b11565b8114611b3757600080fd5b50565b600081359050611b4981611b23565b92915050565b600080fd5b600080fd5b6000601f19601f8301169050919050565b7f4e487b7100000000000000000000000000000000000000000000000000000000600052604160045260246000fd5b611ba282611b59565b810181811067ffffffffffffffff82111715611bc157611bc0611b6a565b5b80604052505050565b6000611bd4611add565b9050611be08282611b99565b919050565b600067ffffffffffffffff821115611c0057611bff611b6a565b5b611c0982611b59565b9050602081019050919050565b82818337600083830152505050565b6000611c38611c3384611be5565b611bca565b905082815260208101848484011115611c5457611c53611b54565b5b611c5f848285611c16565b509392505050565b600082601f830112611c7c57611c7b611b4f565b5b8135611c8c848260208601611c25565b91505092915050565b60008060408385031215611cac57611cab611ae7565b5b6000611cba85828601611b3a565b925050602083013567ffffffffffffffff811115611cdb57611cda611aec565b5b611ce785828601611c67565b9150509250929050565b600067ffffffffffffffff821115611d0c57611d0b611b6a565b5b602082029050919050565b600080fd5b600063ffffffff82169050919050565b611d3581611d1c565b8114611d4057600080fd5b50565b600081359050611d5281611d2c565b92915050565b6000611d6b611d6684611cf1565b611bca565b90508060208402830185811115611d8557611d84611d17565b5b835b81811015611dae5780611d9a8882611d43565b845260208401935050602081019050611d87565b5050509392505050565b600082601f830112611dcd57611dcc611b4f565b5b6006611dda848285611d58565b91505092915050565b600060c08284031215611df957611df8611ae7565b5b6000611e0784828501611db8565b91505092915050565b600060069050919050565b600081905092915050565b6000819050919050565b611e3981611d1c565b82525050565b6000611e4b8383611e30565b60208301905092915050565b6000602082019050919050565b611e6d81611e10565b611e778184611e1b565b9250611e8282611e26565b8060005b83811015611eb3578151611e9a8782611e3f565b9650611ea583611e57565b925050600181019050611e86565b505050505050565b600060c082019050611ed06000830184611e64565b92915050565b6000819050919050565b611ee981611ed6565b82525050565b6000602082019050611f046000830184611ee0565b92915050565b611f1381611a72565b8114611f1e57600080fd5b50565b600081359050611f3081611f0a565b92915050565b600060208284031215611f4c57611f4b611ae7565b5b6000611f5a84828501611f21565b91505092915050565b60008115159050919050565b611f7881611f63565b82525050565b6000602082019050611f936000830184611f6f565b92915050565b600080600060608486031215611fb257611fb1611ae7565b5b6000611fc086828701611f21565b9350506020611fd186828701611f21565b9250506040611fe286828701611f21565b9150509250925092565b611ff581611b11565b82525050565b60006020820190506120106000830184611fec565b92915050565b600081519050919050565b600082825260208201905092915050565b60005b83811015612050578082015181840152602081019050612035565b60008484015250505050565b600061206782612016565b6120718185612021565b9350612081818560208601612032565b61208a81611b59565b840191505092915050565b600060208201905081810360008301526120af818461205c565b905092915050565b600080604083850312156120ce576120cd611ae7565b5b60006120dc85828601611f21565b92505060206120ed85828601611b3a565b9150509250929050565b60006020828403121561210d5761210c611ae7565b5b600061211b84828501611b3a565b91505092915050565b61212d81611aa6565b811461213857600080fd5b50565b60008135905061214a81612124565b92915050565b60008060006060848603121561216957612168611ae7565b5b60006121778682870161213b565b93505060206121888682870161213b565b92505060406121998682870161213b565b9150509250925092565b60008061018083850312156121bb576121ba611ae7565b5b60006121c985828601611db8565b92505060c06121da85828601611db8565b9150509250929050565b7f4e487b7100000000000000000000000000000000000000000000000000000000600052601160045260246000fd5b600061221e82611a72565b915061222983611a72565b9250828203905081811115612241576122406121e4565b5b92915050565b600061225282611a72565b915061225d83611a72565b9250828201905080821115612275576122746121e4565b5b92915050565b7f4e487b7100000000000000000000000000000000000000000000000000000000600052603260045260246000fd5b7f496e76616c6964206e756d626572206f662063686f73656e206e756d62657273600082015250565b60006122e0602083612021565b91506122eb826122aa565b602082019050919050565b6000602082019050818103600083015261230f816122d3565b9050919050565b600061232182611aa6565b915061232c83611aa6565b9250828201905060ff811115612345576123446121e4565b5b92915050565b600061235682611aa6565b915060ff8203612369576123686121e4565b5b600182019050919050565b6000819050919050565b600067ffffffffffffffff82169050919050565b6000819050919050565b60006123b76123b26123ad84612374565b612392565b61237e565b9050919050565b6123c78161239c565b82525050565b60006020820190506123e260008301846123be565b92915050565b60006060820190506123fd6000830186611a7c565b61240a6020830185611a7c565b6124176040830184611a7c565b949350505050565b7f546865204e756d62657273206d75737420626520756e69717565000000000000600082015250565b6000612455601a83612021565b91506124608261241f565b602082019050919050565b6000602082019050818103600083015261248481612448565b9050919050565b7f50657263656e7461676573206d7573742061646420757020746f203130300000600082015250565b60006124c1601e83612021565b91506124cc8261248b565b602082019050919050565b600060208201905081810360008301526124f0816124b4565b9050919050565b600060608201905061250c6000830186611ab3565b6125196020830185611ab3565b6125266040830184611ab3565b949350505050565b61253781611ed6565b811461254257600080fd5b50565b6000815190506125548161252e565b92915050565b6000602082840312156125705761256f611ae7565b5b600061257e84828501612545565b91505092915050565b600081519050919050565b600081905092915050565b60006125a882612587565b6125b28185612592565b93506125c2818560208601612032565b80840191505092915050565b60006125da828461259d565b91508190509291505056fea264697066735822122006f637e6f6d1651470ed9e791d7405f51d83b0e405fc359261b6dcb96856187364736f6c63430008180033",
  "linkReferences": {},
  "deployedLinkReferences": {}
}