{
  "contractName": "QuiniBlock",
  "abi": [
    {
      "anonymous": false,
      "inputs": [
        {
          "indexed": false,
          "internalType": "uint32",
          "name": "drawId",
          "type": "uint32"
        },
        {
          "indexed": false,
          "internalType": "uint32[]",
          "name": "winningNumbers",
          "type": "uint32[]"
        },
        {
          "indexed": false,
          "internalType": "uint256",
          "name": "drawDate",
          "type": "uint256"
        }
      ],
      "name": "DrawCreated",
      "type": "event"
    },
    {
      "anonymous": false,
      "inputs": [
        {
          "indexed": false,
          "internalType": "uint32",
          "name": "ticketId",
          "type": "uint32"
        },
        {
          "indexed": false,
          "internalType": "uint32",
          "name": "drawId",
          "type": "uint32"
        },
        {
          "indexed": false,
          "internalType": "address",
          "name": "buyer",
          "type": "address"
        }
      ],
      "name": "TicketPurchased",
      "type": "event"
    },
    {
      "inputs": [],
      "name": "drawCount",
      "outputs": [
        {
          "internalType": "uint32",
          "name": "",
          "type": "uint32"
        }
      ],
      "stateMutability": "view",
      "type": "function",
      "constant": true
    },
    {
      "inputs": [
        {
          "internalType": "uint32",
          "name": "",
          "type": "uint32"
        }
      ],
      "name": "draws",
      "outputs": [
        {
          "internalType": "uint32",
          "name": "drawId",
          "type": "uint32"
        },
        {
          "internalType": "uint256",
          "name": "drawDate",
          "type": "uint256"
        }
      ],
      "stateMutability": "view",
      "type": "function",
      "constant": true
    },
    {
      "inputs": [],
      "name": "primaryPotValue",
      "outputs": [
        {
          "internalType": "uint256",
          "name": "",
          "type": "uint256"
        }
      ],
      "stateMutability": "view",
      "type": "function",
      "constant": true
    },
    {
      "inputs": [],
      "name": "secondaryPotValue",
      "outputs": [
        {
          "internalType": "uint256",
          "name": "",
          "type": "uint256"
        }
      ],
      "stateMutability": "view",
      "type": "function",
      "constant": true
    },
    {
      "inputs": [],
      "name": "ticketCount",
      "outputs": [
        {
          "internalType": "uint32",
          "name": "",
          "type": "uint32"
        }
      ],
      "stateMutability": "view",
      "type": "function",
      "constant": true
    },
    {
      "inputs": [
        {
          "internalType": "uint32",
          "name": "",
          "type": "uint32"
        }
      ],
      "name": "tickets",
      "outputs": [
        {
          "internalType": "address",
          "name": "buyer",
          "type": "address"
        },
        {
          "internalType": "uint32",
          "name": "drawId",
          "type": "uint32"
        }
      ],
      "stateMutability": "view",
      "type": "function",
      "constant": true
    },
    {
      "inputs": [
        {
          "internalType": "uint32",
          "name": "drawId",
          "type": "uint32"
        },
        {
          "internalType": "uint32[]",
          "name": "_chosenNumbers",
          "type": "uint32[]"
        }
      ],
      "name": "purchaseTicket",
      "outputs": [],
      "stateMutability": "nonpayable",
      "type": "function"
    },
    {
      "inputs": [
        {
          "internalType": "uint32[]",
          "name": "_winningNumbers",
          "type": "uint32[]"
        }
      ],
      "name": "createDraw",
      "outputs": [],
      "stateMutability": "nonpayable",
      "type": "function"
    },
    {
      "inputs": [
        {
          "internalType": "uint256",
          "name": "_primaryPotValue",
          "type": "uint256"
        },
        {
          "internalType": "uint256",
          "name": "_secondaryPotValue",
          "type": "uint256"
        }
      ],
      "name": "setPotValues",
      "outputs": [],
      "stateMutability": "nonpayable",
      "type": "function"
    }
  ],
  "bytecode": "0x608060405234801561001057600080fd5b50610c3e806100206000396000f3fe608060405234801561001057600080fd5b50600436106100935760003560e01c806394b371561161006657806394b37156146101215780639529eb701461013d5780639efb796a14610159578063cfbd900f14610177578063ffd4b4cb1461019557610093565b806308222d581461009857806325777bf8146100b65780632cdf0537146100e757806372614eba14610105575b600080fd5b6100a06101c6565b6040516100ad91906109a3565b60405180910390f35b6100d060048036038101906100cb91906107d0565b6101dc565b6040516100de9291906109fc565b60405180910390f35b6100ef610210565b6040516100fc9190610988565b60405180910390f35b61011f600480360381019061011a9190610794565b610216565b005b61013b60048036038101906101369190610753565b610228565b005b610157600480360381019061015291906107f9565b61036e565b005b610161610556565b60405161016e9190610988565b60405180910390f35b61017f61055c565b60405161018c91906109a3565b60405180910390f35b6101af60048036038101906101aa91906107d0565b610572565b6040516101bd92919061093f565b60405180910390f35b600560009054906101000a900463ffffffff1681565b60046020528060005260406000206000915090508060000160009054906101000a900463ffffffff16908060020154905082565b60005481565b81600081905550806001819055505050565b6040518060600160405280600560009054906101000a900463ffffffff1663ffffffff1681526020018281526020014281525060046000600560009054906101000a900463ffffffff1663ffffffff1663ffffffff16815260200190815260200160002060008201518160000160006101000a81548163ffffffff021916908363ffffffff16021790555060208201518160010190805190602001906102cf9291906105c6565b50604082015181600201559050507f53eca8fa46019ef37536c0ba65da8bd8bd8b1d88293d64214699e188f4d6a333600560009054906101000a900463ffffffff168242604051610322939291906109be565b60405180910390a16005600081819054906101000a900463ffffffff168092919061034c90610b4f565b91906101000a81548163ffffffff021916908363ffffffff1602179055505050565b600560009054906101000a900463ffffffff1663ffffffff168263ffffffff16106103ce576040517f08c379a00000000000000000000000000000000000000000000000000000000081526004016103c590610968565b60405180910390fd5b60405180606001604052808281526020013373ffffffffffffffffffffffffffffffffffffffff1681526020018363ffffffff1681525060026000600360009054906101000a900463ffffffff1663ffffffff1663ffffffff16815260200190815260200160002060008201518160000190805190602001906104529291906105c6565b5060208201518160010160006101000a81548173ffffffffffffffffffffffffffffffffffffffff021916908373ffffffffffffffffffffffffffffffffffffffff16021790555060408201518160010160146101000a81548163ffffffff021916908363ffffffff1602179055509050507f42b2579282bfd66ed25adfcb2f08884c4e8467849a5053ae80c66623cd73a613600360009054906101000a900463ffffffff16833360405161050993929190610a25565b60405180910390a16003600081819054906101000a900463ffffffff168092919061053390610b4f565b91906101000a81548163ffffffff021916908363ffffffff160217905550505050565b60015481565b600360009054906101000a900463ffffffff1681565b60026020528060005260406000206000915090508060010160009054906101000a900473ffffffffffffffffffffffffffffffffffffffff16908060010160149054906101000a900463ffffffff16905082565b828054828255906000526020600020906007016008900481019282156106655791602002820160005b8382111561063357835183826101000a81548163ffffffff021916908363ffffffff16021790555092602001926004016020816003010492830192600103026105ef565b80156106635782816101000a81549063ffffffff0219169055600401602081600301049283019260010302610633565b505b5090506106729190610676565b5090565b5b8082111561068f576000816000905550600101610677565b5090565b60006106a66106a184610a8d565b610a5c565b905080838252602082019050828560208602820111156106c557600080fd5b60005b858110156106f557816106db888261073e565b8452602084019350602083019250506001810190506106c8565b5050509392505050565b600082601f83011261071057600080fd5b8135610720848260208601610693565b91505092915050565b60008135905061073881610bda565b92915050565b60008135905061074d81610bf1565b92915050565b60006020828403121561076557600080fd5b600082013567ffffffffffffffff81111561077f57600080fd5b61078b848285016106ff565b91505092915050565b600080604083850312156107a757600080fd5b60006107b585828601610729565b92505060206107c685828601610729565b9150509250929050565b6000602082840312156107e257600080fd5b60006107f08482850161073e565b91505092915050565b6000806040838503121561080c57600080fd5b600061081a8582860161073e565b925050602083013567ffffffffffffffff81111561083757600080fd5b610843858286016106ff565b9150509250929050565b60006108598383610921565b60208301905092915050565b61086e81610b03565b82525050565b600061087f82610ac9565b6108898185610ae1565b935061089483610ab9565b8060005b838110156108c55781516108ac888261084d565b97506108b783610ad4565b925050600181019050610898565b5085935050505092915050565b60006108df600f83610af2565b91507f496e76616c6964206472617720494400000000000000000000000000000000006000830152602082019050919050565b61091b81610b35565b82525050565b61092a81610b3f565b82525050565b61093981610b3f565b82525050565b60006040820190506109546000830185610865565b6109616020830184610930565b9392505050565b60006020820190508181036000830152610981816108d2565b9050919050565b600060208201905061099d6000830184610912565b92915050565b60006020820190506109b86000830184610930565b92915050565b60006060820190506109d36000830186610930565b81810360208301526109e58185610874565b90506109f46040830184610912565b949350505050565b6000604082019050610a116000830185610930565b610a1e6020830184610912565b9392505050565b6000606082019050610a3a6000830186610930565b610a476020830185610930565b610a546040830184610865565b949350505050565b6000604051905081810181811067ffffffffffffffff82111715610a8357610a82610bab565b5b8060405250919050565b600067ffffffffffffffff821115610aa857610aa7610bab565b5b602082029050602081019050919050565b6000819050602082019050919050565b600081519050919050565b6000602082019050919050565b600082825260208201905092915050565b600082825260208201905092915050565b6000610b0e82610b15565b9050919050565b600073ffffffffffffffffffffffffffffffffffffffff82169050919050565b6000819050919050565b600063ffffffff82169050919050565b6000610b5a82610b3f565b915063ffffffff821415610b7157610b70610b7c565b5b600182019050919050565b7f4e487b7100000000000000000000000000000000000000000000000000000000600052601160045260246000fd5b7f4e487b7100000000000000000000000000000000000000000000000000000000600052604160045260246000fd5b610be381610b35565b8114610bee57600080fd5b50565b610bfa81610b3f565b8114610c0557600080fd5b5056fea26469706673582212208945b7b0f4a335a4d5c9151f528a1b90a7e669fa9896dbfa90c9663cd558444964736f6c63430008000033",
  "immutableReferences": {},
  "source": "// SPDX-License-Identifier: MIT\r\npragma solidity ^0.8.0;\r\n\r\ncontract QuiniBlock {\r\n    struct Ticket {\r\n        uint32[] chosenNumbers;\r\n        address buyer;\r\n        uint32 drawId; // Added to link ticket to a draw\r\n    }\r\n\r\n    struct Draw {\r\n        uint32 drawId;\r\n        uint32[] winningNumbers;\r\n        uint256 drawDate;\r\n    }\r\n\r\n    uint256 public primaryPotValue;\r\n    uint256 public secondaryPotValue;\r\n\r\n    mapping(uint32 => Ticket) public tickets;\r\n    uint32 public ticketCount;\r\n\r\n    mapping(uint32 => Draw) public draws;\r\n    uint32 public drawCount;\r\n\r\n    // Events\r\n    event TicketPurchased(uint32 ticketId, uint32 drawId, address buyer); // Modified event\r\n    event DrawCreated(uint32 drawId, uint32[] winningNumbers, uint256 drawDate);\r\n\r\n    // Function to purchase a ticket\r\n    function purchaseTicket(uint32 drawId, uint32[] memory _chosenNumbers) public {\r\n        require(drawId < drawCount, \"Invalid draw ID\"); // Ensure draw exists\r\n\r\n        tickets[ticketCount] = Ticket({\r\n            chosenNumbers: _chosenNumbers,\r\n            buyer: msg.sender,\r\n            drawId: drawId // Link ticket to the draw\r\n        });\r\n\r\n        emit TicketPurchased(ticketCount, drawId, msg.sender); // Emit modified event\r\n        ticketCount++;\r\n    }\r\n\r\n    // Function to create a new draw\r\n    function createDraw(uint32[] memory _winningNumbers) public {\r\n        draws[drawCount] = Draw({\r\n            drawId: drawCount,\r\n            winningNumbers: _winningNumbers,\r\n            drawDate: block.timestamp\r\n        });\r\n\r\n        emit DrawCreated(drawCount, _winningNumbers, block.timestamp);\r\n        drawCount++;\r\n    }\r\n\r\n    // Function to set contract info\r\n    function setPotValues(uint256 _primaryPotValue, uint256 _secondaryPotValue) public {\r\n        primaryPotValue = _primaryPotValue;\r\n        secondaryPotValue = _secondaryPotValue;\r\n    }\r\n}\r\n",
  "sourcePath": "C:\\Users\\stest\\OneDrive\\Escritorio\\utn-diplo\\truffle\\contracts\\QuiniBlock.sol",
  "compiler": {
    "name": "solc",
    "version": "0.8.0+commit.c7dfd78e.Emscripten.clang"
  },
  "schemaVersion": "3.4.16",
  "updatedAt": "2024-07-20T13:52:49.022Z",
  "networkType": "ethereum",
  "devdoc": {
    "kind": "dev",
    "methods": {},
    "version": 1
  },
  "userdoc": {
    "kind": "user",
    "methods": {},
    "version": 1
  }
}