{
  "_format": "hh-sol-artifact-1",
  "contractName": "QuiniBlockContract",
  "sourceName": "contracts/QuiniBlockContract.sol",
  "abi": [
    {
      "inputs": [
        {
          "internalType": "address",
          "name": "target",
          "type": "address"
        }
      ],
      "name": "AddressEmptyCode",
      "type": "error"
    },
    {
      "inputs": [
        {
          "internalType": "address",
          "name": "implementation",
          "type": "address"
        }
      ],
      "name": "ERC1967InvalidImplementation",
      "type": "error"
    },
    {
      "inputs": [],
      "name": "ERC1967NonPayable",
      "type": "error"
    },
    {
      "inputs": [],
      "name": "EnforcedPause",
      "type": "error"
    },
    {
      "inputs": [],
      "name": "ExpectedPause",
      "type": "error"
    },
    {
      "inputs": [],
      "name": "FailedInnerCall",
      "type": "error"
    },
    {
      "inputs": [],
      "name": "InvalidInitialization",
      "type": "error"
    },
    {
      "inputs": [],
      "name": "NotInitializing",
      "type": "error"
    },
    {
      "inputs": [
        {
          "internalType": "address",
          "name": "owner",
          "type": "address"
        }
      ],
      "name": "OwnableInvalidOwner",
      "type": "error"
    },
    {
      "inputs": [
        {
          "internalType": "address",
          "name": "account",
          "type": "address"
        }
      ],
      "name": "OwnableUnauthorizedAccount",
      "type": "error"
    },
    {
      "inputs": [],
      "name": "ReentrancyGuardReentrantCall",
      "type": "error"
    },
    {
      "inputs": [],
      "name": "UUPSUnauthorizedCallContext",
      "type": "error"
    },
    {
      "inputs": [
        {
          "internalType": "bytes32",
          "name": "slot",
          "type": "bytes32"
        }
      ],
      "name": "UUPSUnsupportedProxiableUUID",
      "type": "error"
    },
    {
      "anonymous": false,
      "inputs": [
        {
          "indexed": false,
          "internalType": "uint256",
          "name": "newPrimaryPot",
          "type": "uint256"
        },
        {
          "indexed": false,
          "internalType": "uint256",
          "name": "newSecondaryPot",
          "type": "uint256"
        }
      ],
      "name": "AdjustPots",
      "type": "event"
    },
    {
      "anonymous": false,
      "inputs": [
        {
          "indexed": false,
          "internalType": "uint32",
          "name": "drawId",
          "type": "uint32"
        },
        {
          "indexed": false,
          "internalType": "uint256",
          "name": "drawDate",
          "type": "uint256"
        },
        {
          "indexed": false,
          "internalType": "uint32[6]",
          "name": "winningNumbers",
          "type": "uint32[6]"
        },
        {
          "indexed": false,
          "internalType": "address[]",
          "name": "winners",
          "type": "address[]"
        }
      ],
      "name": "DrawDone",
      "type": "event"
    },
    {
      "anonymous": false,
      "inputs": [
        {
          "indexed": false,
          "internalType": "uint32",
          "name": "drawId",
          "type": "uint32"
        },
        {
          "indexed": false,
          "internalType": "uint256",
          "name": "_primaryPot",
          "type": "uint256"
        }
      ],
      "name": "DrawStarted",
      "type": "event"
    },
    {
      "anonymous": false,
      "inputs": [
        {
          "indexed": false,
          "internalType": "uint256",
          "name": "totalIncrement",
          "type": "uint256"
        },
        {
          "indexed": false,
          "internalType": "uint256",
          "name": "primaryIncrement",
          "type": "uint256"
        },
        {
          "indexed": false,
          "internalType": "uint256",
          "name": "secondaryIncrement",
          "type": "uint256"
        },
        {
          "indexed": false,
          "internalType": "uint256",
          "name": "reserveIncrement",
          "type": "uint256"
        }
      ],
      "name": "IncrementedPot",
      "type": "event"
    },
    {
      "anonymous": false,
      "inputs": [
        {
          "indexed": false,
          "internalType": "uint64",
          "name": "version",
          "type": "uint64"
        }
      ],
      "name": "Initialized",
      "type": "event"
    },
    {
      "anonymous": false,
      "inputs": [
        {
          "indexed": true,
          "internalType": "address",
          "name": "previousOwner",
          "type": "address"
        },
        {
          "indexed": true,
          "internalType": "address",
          "name": "newOwner",
          "type": "address"
        }
      ],
      "name": "OwnershipTransferred",
      "type": "event"
    },
    {
      "anonymous": false,
      "inputs": [
        {
          "indexed": false,
          "internalType": "address",
          "name": "account",
          "type": "address"
        }
      ],
      "name": "Paused",
      "type": "event"
    },
    {
      "anonymous": false,
      "inputs": [
        {
          "indexed": false,
          "internalType": "uint8",
          "name": "primaryPotPercentage",
          "type": "uint8"
        },
        {
          "indexed": false,
          "internalType": "uint8",
          "name": "secondaryPotPercentage",
          "type": "uint8"
        },
        {
          "indexed": false,
          "internalType": "uint8",
          "name": "reservePotPercentage",
          "type": "uint8"
        }
      ],
      "name": "SetPotPercentages",
      "type": "event"
    },
    {
      "anonymous": false,
      "inputs": [
        {
          "indexed": false,
          "internalType": "uint256",
          "name": "primaryPot",
          "type": "uint256"
        },
        {
          "indexed": false,
          "internalType": "uint256",
          "name": "secondaryPot",
          "type": "uint256"
        },
        {
          "indexed": false,
          "internalType": "uint256",
          "name": "reservePot",
          "type": "uint256"
        }
      ],
      "name": "SetPotValues",
      "type": "event"
    },
    {
      "anonymous": false,
      "inputs": [
        {
          "indexed": false,
          "internalType": "uint256",
          "name": "_ticketPriceInWei",
          "type": "uint256"
        }
      ],
      "name": "SetTicketPrice",
      "type": "event"
    },
    {
      "anonymous": false,
      "inputs": [
        {
          "indexed": false,
          "internalType": "uint32",
          "name": "ticketId",
          "type": "uint32"
        },
        {
          "indexed": false,
          "internalType": "uint32",
          "name": "drawId",
          "type": "uint32"
        },
        {
          "indexed": false,
          "internalType": "address",
          "name": "buyer",
          "type": "address"
        }
      ],
      "name": "TicketPurchased",
      "type": "event"
    },
    {
      "anonymous": false,
      "inputs": [
        {
          "indexed": false,
          "internalType": "address",
          "name": "account",
          "type": "address"
        }
      ],
      "name": "Unpaused",
      "type": "event"
    },
    {
      "anonymous": false,
      "inputs": [
        {
          "indexed": true,
          "internalType": "address",
          "name": "implementation",
          "type": "address"
        }
      ],
      "name": "Upgraded",
      "type": "event"
    },
    {
      "inputs": [],
      "name": "UPGRADE_INTERFACE_VERSION",
      "outputs": [
        {
          "internalType": "string",
          "name": "",
          "type": "string"
        }
      ],
      "stateMutability": "view",
      "type": "function"
    },
    {
      "inputs": [
        {
          "internalType": "uint32[6]",
          "name": "numbers",
          "type": "uint32[6]"
        }
      ],
      "name": "areUniqueNumbers",
      "outputs": [
        {
          "internalType": "bool",
          "name": "",
          "type": "bool"
        }
      ],
      "stateMutability": "pure",
      "type": "function"
    },
    {
      "inputs": [
        {
          "internalType": "uint32[6]",
          "name": "numbers",
          "type": "uint32[6]"
        }
      ],
      "name": "areValidNumbers",
      "outputs": [
        {
          "internalType": "bool",
          "name": "",
          "type": "bool"
        }
      ],
      "stateMutability": "pure",
      "type": "function"
    },
    {
      "inputs": [],
      "name": "basePotValue",
      "outputs": [
        {
          "internalType": "uint256",
          "name": "",
          "type": "uint256"
        }
      ],
      "stateMutability": "view",
      "type": "function"
    },
    {
      "inputs": [
        {
          "internalType": "uint32[6]",
          "name": "numbers1",
          "type": "uint32[6]"
        },
        {
          "internalType": "uint32[6]",
          "name": "numbers2",
          "type": "uint32[6]"
        }
      ],
      "name": "compareNumbers",
      "outputs": [
        {
          "internalType": "bool",
          "name": "",
          "type": "bool"
        }
      ],
      "stateMutability": "pure",
      "type": "function"
    },
    {
      "inputs": [],
      "name": "currentDrawId",
      "outputs": [
        {
          "internalType": "uint32",
          "name": "",
          "type": "uint32"
        }
      ],
      "stateMutability": "view",
      "type": "function"
    },
    {
      "inputs": [
        {
          "internalType": "uint32",
          "name": "",
          "type": "uint32"
        }
      ],
      "name": "draws",
      "outputs": [
        {
          "internalType": "uint256",
          "name": "drawDate",
          "type": "uint256"
        }
      ],
      "stateMutability": "view",
      "type": "function"
    },
    {
      "inputs": [],
      "name": "emergencyResetDraw",
      "outputs": [],
      "stateMutability": "nonpayable",
      "type": "function"
    },
    {
      "inputs": [
        {
          "internalType": "uint32[6]",
          "name": "_winningNumbers",
          "type": "uint32[6]"
        }
      ],
      "name": "emitDraw",
      "outputs": [],
      "stateMutability": "nonpayable",
      "type": "function"
    },
    {
      "inputs": [],
      "name": "getContractState",
      "outputs": [
        {
          "internalType": "uint256",
          "name": "_ticketPrice",
          "type": "uint256"
        },
        {
          "internalType": "uint32",
          "name": "_ticketCount",
          "type": "uint32"
        },
        {
          "internalType": "bool",
          "name": "_isDrawActive",
          "type": "bool"
        },
        {
          "internalType": "bool",
          "name": "_isContractPaused",
          "type": "bool"
        },
        {
          "internalType": "uint32",
          "name": "_currentDrawId",
          "type": "uint32"
        },
        {
          "internalType": "uint256",
          "name": "_primaryPot",
          "type": "uint256"
        },
        {
          "internalType": "uint256",
          "name": "_secondaryPot",
          "type": "uint256"
        },
        {
          "internalType": "uint256",
          "name": "_reservePot",
          "type": "uint256"
        },
        {
          "internalType": "uint256",
          "name": "_balance",
          "type": "uint256"
        },
        {
          "internalType": "uint256",
          "name": "_basePotValue",
          "type": "uint256"
        },
        {
          "internalType": "address",
          "name": "_owner",
          "type": "address"
        }
      ],
      "stateMutability": "view",
      "type": "function"
    },
    {
      "inputs": [
        {
          "internalType": "uint32",
          "name": "_drawId",
          "type": "uint32"
        }
      ],
      "name": "getDraw",
      "outputs": [
        {
          "components": [
            {
              "internalType": "uint256",
              "name": "drawDate",
              "type": "uint256"
            },
            {
              "internalType": "uint32[6]",
              "name": "winningNumbers",
              "type": "uint32[6]"
            },
            {
              "internalType": "address[]",
              "name": "winners",
              "type": "address[]"
            }
          ],
          "internalType": "struct QuiniBlockContract.Draw",
          "name": "",
          "type": "tuple"
        }
      ],
      "stateMutability": "view",
      "type": "function"
    },
    {
      "inputs": [
        {
          "internalType": "uint32",
          "name": "ticketId",
          "type": "uint32"
        }
      ],
      "name": "getTicketNumbers",
      "outputs": [
        {
          "internalType": "uint32[6]",
          "name": "",
          "type": "uint32[6]"
        }
      ],
      "stateMutability": "view",
      "type": "function"
    },
    {
      "inputs": [
        {
          "internalType": "uint256",
          "name": "_basePotValue",
          "type": "uint256"
        },
        {
          "internalType": "address",
          "name": "initialOwner",
          "type": "address"
        }
      ],
      "name": "initialize",
      "outputs": [],
      "stateMutability": "nonpayable",
      "type": "function"
    },
    {
      "inputs": [],
      "name": "isDrawActive",
      "outputs": [
        {
          "internalType": "bool",
          "name": "",
          "type": "bool"
        }
      ],
      "stateMutability": "view",
      "type": "function"
    },
    {
      "inputs": [
        {
          "internalType": "uint32[6]",
          "name": "numbers",
          "type": "uint32[6]"
        }
      ],
      "name": "orderNumbers",
      "outputs": [
        {
          "internalType": "uint32[6]",
          "name": "",
          "type": "uint32[6]"
        }
      ],
      "stateMutability": "pure",
      "type": "function"
    },
    {
      "inputs": [],
      "name": "owner",
      "outputs": [
        {
          "internalType": "address",
          "name": "",
          "type": "address"
        }
      ],
      "stateMutability": "view",
      "type": "function"
    },
    {
      "inputs": [],
      "name": "pause",
      "outputs": [],
      "stateMutability": "nonpayable",
      "type": "function"
    },
    {
      "inputs": [],
      "name": "paused",
      "outputs": [
        {
          "internalType": "bool",
          "name": "",
          "type": "bool"
        }
      ],
      "stateMutability": "view",
      "type": "function"
    },
    {
      "inputs": [],
      "name": "primaryPot",
      "outputs": [
        {
          "internalType": "uint256",
          "name": "",
          "type": "uint256"
        }
      ],
      "stateMutability": "view",
      "type": "function"
    },
    {
      "inputs": [],
      "name": "primaryPotPercentage",
      "outputs": [
        {
          "internalType": "uint8",
          "name": "",
          "type": "uint8"
        }
      ],
      "stateMutability": "view",
      "type": "function"
    },
    {
      "inputs": [],
      "name": "proxiableUUID",
      "outputs": [
        {
          "internalType": "bytes32",
          "name": "",
          "type": "bytes32"
        }
      ],
      "stateMutability": "view",
      "type": "function"
    },
    {
      "inputs": [
        {
          "internalType": "uint32[6]",
          "name": "_chosenNumbers",
          "type": "uint32[6]"
        }
      ],
      "name": "purchaseTicket",
      "outputs": [],
      "stateMutability": "payable",
      "type": "function"
    },
    {
      "inputs": [],
      "name": "renounceOwnership",
      "outputs": [],
      "stateMutability": "nonpayable",
      "type": "function"
    },
    {
      "inputs": [],
      "name": "reservePot",
      "outputs": [
        {
          "internalType": "uint256",
          "name": "",
          "type": "uint256"
        }
      ],
      "stateMutability": "view",
      "type": "function"
    },
    {
      "inputs": [],
      "name": "reservePotPercentage",
      "outputs": [
        {
          "internalType": "uint8",
          "name": "",
          "type": "uint8"
        }
      ],
      "stateMutability": "view",
      "type": "function"
    },
    {
      "inputs": [],
      "name": "secondaryPot",
      "outputs": [
        {
          "internalType": "uint256",
          "name": "",
          "type": "uint256"
        }
      ],
      "stateMutability": "view",
      "type": "function"
    },
    {
      "inputs": [],
      "name": "secondaryPotPercentage",
      "outputs": [
        {
          "internalType": "uint8",
          "name": "",
          "type": "uint8"
        }
      ],
      "stateMutability": "view",
      "type": "function"
    },
    {
      "inputs": [
        {
          "internalType": "uint256",
          "name": "_basePotValue",
          "type": "uint256"
        }
      ],
      "name": "setBasePotValue",
      "outputs": [],
      "stateMutability": "nonpayable",
      "type": "function"
    },
    {
      "inputs": [
        {
          "internalType": "uint8",
          "name": "_primaryPotPercentage",
          "type": "uint8"
        },
        {
          "internalType": "uint8",
          "name": "_secondaryPotPercentage",
          "type": "uint8"
        },
        {
          "internalType": "uint8",
          "name": "_reservePotPercentage",
          "type": "uint8"
        }
      ],
      "name": "setPotPercentages",
      "outputs": [],
      "stateMutability": "nonpayable",
      "type": "function"
    },
    {
      "inputs": [
        {
          "internalType": "uint256",
          "name": "_primaryPot",
          "type": "uint256"
        },
        {
          "internalType": "uint256",
          "name": "_secondaryPot",
          "type": "uint256"
        },
        {
          "internalType": "uint256",
          "name": "_reservePot",
          "type": "uint256"
        }
      ],
      "name": "setPotValues",
      "outputs": [],
      "stateMutability": "nonpayable",
      "type": "function"
    },
    {
      "inputs": [
        {
          "internalType": "uint256",
          "name": "_ticketPriceInWei",
          "type": "uint256"
        }
      ],
      "name": "setTicketPrice",
      "outputs": [],
      "stateMutability": "nonpayable",
      "type": "function"
    },
    {
      "inputs": [],
      "name": "startDraw",
      "outputs": [],
      "stateMutability": "nonpayable",
      "type": "function"
    },
    {
      "inputs": [],
      "name": "ticketCount",
      "outputs": [
        {
          "internalType": "uint32",
          "name": "",
          "type": "uint32"
        }
      ],
      "stateMutability": "view",
      "type": "function"
    },
    {
      "inputs": [],
      "name": "ticketPrice",
      "outputs": [
        {
          "internalType": "uint256",
          "name": "",
          "type": "uint256"
        }
      ],
      "stateMutability": "view",
      "type": "function"
    },
    {
      "inputs": [
        {
          "internalType": "uint32",
          "name": "",
          "type": "uint32"
        }
      ],
      "name": "tickets",
      "outputs": [
        {
          "internalType": "address",
          "name": "buyer",
          "type": "address"
        },
        {
          "internalType": "uint32",
          "name": "drawId",
          "type": "uint32"
        }
      ],
      "stateMutability": "view",
      "type": "function"
    },
    {
      "inputs": [
        {
          "internalType": "address",
          "name": "newOwner",
          "type": "address"
        }
      ],
      "name": "transferOwnership",
      "outputs": [],
      "stateMutability": "nonpayable",
      "type": "function"
    },
    {
      "inputs": [],
      "name": "unpause",
      "outputs": [],
      "stateMutability": "nonpayable",
      "type": "function"
    },
    {
      "inputs": [
        {
          "internalType": "address",
          "name": "newImplementation",
          "type": "address"
        },
        {
          "internalType": "bytes",
          "name": "data",
          "type": "bytes"
        }
      ],
      "name": "upgradeToAndCall",
      "outputs": [],
      "stateMutability": "payable",
      "type": "function"
    },
    {
      "inputs": [
        {
          "internalType": "uint256",
          "name": "primaryAmount",
          "type": "uint256"
        },
        {
          "internalType": "uint256",
          "name": "secondaryAmount",
          "type": "uint256"
        },
        {
          "internalType": "uint256",
          "name": "reserveAmount",
          "type": "uint256"
        }
      ],
      "name": "validateFunds",
      "outputs": [
        {
          "internalType": "bool",
          "name": "",
          "type": "bool"
        }
      ],
      "stateMutability": "view",
      "type": "function"
    },
    {
      "inputs": [
        {
          "internalType": "uint256",
          "name": "primaryAmount",
          "type": "uint256"
        }
      ],
      "name": "validateFundsPrimary",
      "outputs": [
        {
          "internalType": "bool",
          "name": "",
          "type": "bool"
        }
      ],
      "stateMutability": "view",
      "type": "function"
    },
    {
      "inputs": [
        {
          "internalType": "uint256",
          "name": "reserveAmount",
          "type": "uint256"
        }
      ],
      "name": "validateFundsReserve",
      "outputs": [
        {
          "internalType": "bool",
          "name": "",
          "type": "bool"
        }
      ],
      "stateMutability": "view",
      "type": "function"
    },
    {
      "inputs": [
        {
          "internalType": "uint256",
          "name": "secondaryAmount",
          "type": "uint256"
        }
      ],
      "name": "validateFundsSecondary",
      "outputs": [
        {
          "internalType": "bool",
          "name": "",
          "type": "bool"
        }
      ],
      "stateMutability": "view",
      "type": "function"
    },
    {
      "stateMutability": "payable",
      "type": "receive"
    }
  ],
  "bytecode": "0x60a06040523073ffffffffffffffffffffffffffffffffffffffff1660809073ffffffffffffffffffffffffffffffffffffffff1681525034801561004357600080fd5b5060805161469061006d60003960008181611f5c01528181611fb1015261216c01526146906000f3fe6080604052600436106102555760003560e01c80638456cb5911610139578063cfbd900f116100b6578063f7ae1d131161007a578063f7ae1d131461088b578063f86341a9146108b4578063f97cc890146108f1578063f9b5c74b1461091c578063fc95eb0314610959578063ffd4b4cb146109845761025c565b8063cfbd900f146107a8578063da35a26f146107d3578063db406f4c146107fc578063f2fde38b14610825578063f33db7c81461084e5761025c565b8063bca78fab116100fd578063bca78fab146106d0578063c03d9db8146106fb578063c2f588e014610738578063c3791e1314610775578063c3933ac41461078c5761025c565b80638456cb59146106115780638da5cb5b146106285780639124864c14610653578063960038701461067c578063ad3cb1cc146106a55761025c565b80633f4ba83a116101d25780635c975abb116101965780635c975abb146104f55780636285261614610520578063715018a61461054b578063771d35da146105625780637f4e48491461059f57806383c34aaf146105d45761025c565b80633f4ba83a1461041d5780634f1ef28614610434578063513327101461045057806352d1902d1461048d5780635309eb56146104b85761025c565b806324d473351161021957806324d473351461033657806325777bf8146103615780632ae168a61461039e5780632c2df2cb146103b557806335951bd7146103f25761025c565b8063023c516314610261578063081287d21461028c5780631209b1f6146102b757806312a1ad5f146102e2578063159816501461030d5761025c565b3661025c57005b600080fd5b34801561026d57600080fd5b506102766109c2565b60405161028391906130ef565b60405180910390f35b34801561029857600080fd5b506102a16109c8565b6040516102ae9190613126565b60405180910390f35b3480156102c357600080fd5b506102cc6109db565b6040516102d991906130ef565b60405180910390f35b3480156102ee57600080fd5b506102f76109e1565b6040516103049190613126565b60405180910390f35b34801561031957600080fd5b50610334600480360381019061032f9190613181565b6109f4565b005b34801561034257600080fd5b5061034b610a80565b60405161035891906130ef565b60405180910390f35b34801561036d57600080fd5b50610388600480360381019061038391906131ea565b610a86565b60405161039591906130ef565b60405180910390f35b3480156103aa57600080fd5b506103b3610aa4565b005b3480156103c157600080fd5b506103dc60048036038101906103d791906131ea565b610bb2565b6040516103e991906132c2565b60405180910390f35b3480156103fe57600080fd5b50610407610c4b565b60405161041491906130ef565b60405180910390f35b34801561042957600080fd5b50610432610c51565b005b61044e60048036038101906104499190613481565b610c7e565b005b34801561045c57600080fd5b5061047760048036038101906104729190613593565b610c9d565b60405161048491906132c2565b60405180910390f35b34801561049957600080fd5b506104a2610dc9565b6040516104af91906135d9565b60405180910390f35b3480156104c457600080fd5b506104df60048036038101906104da9190613181565b610dfc565b6040516104ec919061360f565b60405180910390f35b34801561050157600080fd5b5061050a610e0b565b604051610517919061360f565b60405180910390f35b34801561052c57600080fd5b50610535610e30565b60405161054291906130ef565b60405180910390f35b34801561055757600080fd5b50610560610e36565b005b34801561056e57600080fd5b506105896004803603810190610584919061362a565b610e4a565b604051610596919061360f565b60405180910390f35b3480156105ab57600080fd5b506105b4610ea4565b6040516105cb9b9a9998979695949392919061369b565b60405180910390f35b3480156105e057600080fd5b506105fb60048036038101906105f691906131ea565b610f27565b60405161060891906138c6565b60405180910390f35b34801561061d57600080fd5b50610626611069565b005b34801561063457600080fd5b5061063d611096565b60405161064a91906138e8565b60405180910390f35b34801561065f57600080fd5b5061067a60048036038101906106759190613593565b6110ce565b005b34801561068857600080fd5b506106a3600480360381019061069e9190613181565b6113ec565b005b3480156106b157600080fd5b506106ba611406565b6040516106c79190613982565b60405180910390f35b3480156106dc57600080fd5b506106e561143f565b6040516106f291906139a4565b60405180910390f35b34801561070757600080fd5b50610722600480360381019061071d9190613181565b611455565b60405161072f919061360f565b60405180910390f35b34801561074457600080fd5b5061075f600480360381019061075a9190613593565b611464565b60405161076c919061360f565b60405180910390f35b34801561078157600080fd5b5061078a61155a565b005b6107a660048036038101906107a19190613593565b61157f565b005b3480156107b457600080fd5b506107bd611831565b6040516107ca91906139a4565b60405180910390f35b3480156107df57600080fd5b506107fa60048036038101906107f591906139bf565b611847565b005b34801561080857600080fd5b50610823600480360381019061081e919061362a565b611a23565b005b34801561083157600080fd5b5061084c600480360381019061084791906139ff565b611a8e565b005b34801561085a57600080fd5b5061087560048036038101906108709190613593565b611b14565b604051610882919061360f565b60405180910390f35b34801561089757600080fd5b506108b260048036038101906108ad9190613a58565b611be9565b005b3480156108c057600080fd5b506108db60048036038101906108d69190613aab565b611d13565b6040516108e8919061360f565b60405180910390f35b3480156108fd57600080fd5b50610906611d97565b6040516109139190613126565b60405180910390f35b34801561092857600080fd5b50610943600480360381019061093e9190613181565b611daa565b604051610950919061360f565b60405180910390f35b34801561096557600080fd5b5061096e611db9565b60405161097b919061360f565b60405180910390f35b34801561099057600080fd5b506109ab60048036038101906109a691906131ea565b611dcc565b6040516109b9929190613aec565b60405180910390f35b60005481565b600460029054906101000a900460ff1681565b60055481565b600460019054906101000a900460ff1681565b6109fc611e20565b60008111610a3f576040517f08c379a0000000000000000000000000000000000000000000000000000000008152600401610a3690613b87565b60405180910390fd5b806005819055507fc2e799ff24fe6d4dff6b297fa44a63d263e26e4ef7d329cdd731fd8b64c4069481604051610a7591906130ef565b60405180910390a150565b60035481565b60086020528060005260406000206000915090508060000154905081565b610aac611e20565b610ab4611ea7565b6000805411610af8576040517f08c379a0000000000000000000000000000000000000000000000000000000008152600401610aef90613c19565b60405180910390fd5b600960049054906101000a900460ff1615610b48576040517f08c379a0000000000000000000000000000000000000000000000000000000008152600401610b3f90613cab565b60405180910390fd5b6001600960046101000a81548160ff0219169083151502179055507f7b297547a5692097f0e8f5a8c14f4541a1b6b30ae144b7e8e4fc7200fa6024fd600960009054906101000a900463ffffffff16600054604051610ba8929190613ccb565b60405180910390a1565b610bba612f43565b600660008363ffffffff1663ffffffff168152602001908152602001600020600001600680602002604051908101604052809291908260068015610c3f576020028201916000905b82829054906101000a900463ffffffff1663ffffffff1681526020019060040190602082600301049283019260010382029150808411610c025790505b50505050509050919050565b60025481565b610c59611e20565b610c61611ee8565b6000600460036101000a81548160ff021916908315150217905550565b610c86611f5a565b610c8f82612040565b610c99828261204b565b5050565b610ca5612f43565b60005b60016006610cb69190613d23565b811015610dc0576000600182610ccc9190613d57565b90505b6006811015610db257838160068110610ceb57610cea613d8b565b5b602002015163ffffffff16848360068110610d0957610d08613d8b565b5b602002015163ffffffff161115610da5576000848360068110610d2f57610d2e613d8b565b5b60200201519050848260068110610d4957610d48613d8b565b5b6020020151858460068110610d6157610d60613d8b565b5b602002019063ffffffff16908163ffffffff168152505080858360068110610d8c57610d8b613d8b565b5b602002019063ffffffff16908163ffffffff1681525050505b8080600101915050610ccf565b508080600101915050610ca8565b50819050919050565b6000610dd361216a565b7f360894a13ba1a3210667c828492db98dca3e2076cc3735a920a3ca505d382bbc60001b905090565b60008160025410159050919050565b600080610e166121f1565b90508060000160009054906101000a900460ff1691505090565b60015481565b610e3e611e20565b610e486000612219565b565b6000804790506000838587610e5f9190613d57565b610e699190613d57565b90508560005410158015610e7f57508460015410155b8015610e8d57508360025410155b8015610e995750818111155b925050509392505050565b6000806000806000806000806000806000600554600760009054906101000a900463ffffffff16600960049054906101000a900460ff168a600960009054906101000a900463ffffffff1660005460015460025447600354610f04611096565b9a509a509a509a509a509a509a509a509a509a509a50909192939495969798999a565b610f2f612f65565b600860008363ffffffff1663ffffffff1681526020019081526020016000206040518060600160405290816000820154815260200160018201600680602002604051908101604052809291908260068015610fcb576020028201916000905b82829054906101000a900463ffffffff1663ffffffff1681526020019060040190602082600301049283019260010382029150808411610f8e5790505b505050505081526020016002820180548060200260200160405190810160405280929190818152602001828054801561105957602002820191906000526020600020905b8160009054906101000a900473ffffffffffffffffffffffffffffffffffffffff1673ffffffffffffffffffffffffffffffffffffffff168152602001906001019080831161100f575b5050505050815250509050919050565b611071611e20565b6110796122f0565b6001600460036101000a81548160ff021916908315150217905550565b6000806110a1612362565b90508060000160009054906101000a900473ffffffffffffffffffffffffffffffffffffffff1691505090565b6110d6611e20565b6110de611ea7565b600960049054906101000a900460ff1661112d576040517f08c379a000000000000000000000000000000000000000000000000000000000815260040161112490613e06565b60405180910390fd5b61113681611b14565b611175576040517f08c379a000000000000000000000000000000000000000000000000000000000815260040161116c90613e98565b60405180910390fd5b6000611193600960009054906101000a900463ffffffff168361238a565b905060405180606001604052804281526020018381526020018281525060086000600960009054906101000a900463ffffffff1663ffffffff1663ffffffff16815260200190815260200160002060008201518160000155602082015181600101906006611202929190612f8c565b50604082015181600201908051906020019061121f92919061302f565b509050507fcb3ed57e0f7afbf6f830df1cbbbb9ad02a9d2f268cbc1cc89476fef15c2776ae600960009054906101000a900463ffffffff1642848460405161126a9493929190613f27565b60405180910390a160008151111561138c576000815160005461128d9190613fa4565b905060005b82518163ffffffff161015611381576000838263ffffffff16815181106112bc576112bb613d8b565b5b602002602001015173ffffffffffffffffffffffffffffffffffffffff16836040516112e790614006565b60006040518083038185875af1925050503d8060008114611324576040519150601f19603f3d011682016040523d82523d6000602084013e611329565b606091505b505090508061136d576040517f08c379a000000000000000000000000000000000000000000000000000000000815260040161136490614067565b60405180910390fd5b50808061137990614087565b915050611292565b5061138a6126b5565b505b6000600960046101000a81548160ff0219169083151502179055506009600081819054906101000a900463ffffffff16809291906113c990614087565b91906101000a81548163ffffffff021916908363ffffffff160217905550505050565b6113f4611e20565b6113fc611ea7565b8060038190555050565b6040518060400160405280600581526020017f352e302e3000000000000000000000000000000000000000000000000000000081525081565b600960009054906101000a900463ffffffff1681565b60008160005410159050919050565b6000600680146114a9576040517f08c379a00000000000000000000000000000000000000000000000000000000081526004016114a0906140ff565b60405180910390fd5b60005b60068160ff16101561154f5760006001826114c7919061411f565b90505b60068160ff16101561153b57838160ff16600681106114ec576114eb613d8b565b5b602002015163ffffffff16848360ff166006811061150d5761150c613d8b565b5b602002015163ffffffff160361152857600092505050611555565b808061153390614154565b9150506114ca565b50808061154790614154565b9150506114ac565b50600190505b919050565b611562611e20565b6000600960046101000a81548160ff021916908315150217905550565b611587612742565b61158f611ea7565b600960049054906101000a900460ff166115de576040517f08c379a00000000000000000000000000000000000000000000000000000000081526004016115d5906141ef565b60405180910390fd5b6005543414611622576040517f08c379a00000000000000000000000000000000000000000000000000000000081526004016116199061425b565b60405180910390fd5b61162b81611b14565b61166a576040517f08c379a0000000000000000000000000000000000000000000000000000000008152600401611661906142ed565b60405180910390fd5b600061167582610c9d565b905060405180606001604052808281526020013373ffffffffffffffffffffffffffffffffffffffff168152602001600960009054906101000a900463ffffffff1663ffffffff1681525060066000600760009054906101000a900463ffffffff1663ffffffff1663ffffffff168152602001908152602001600020600082015181600001906006611708929190612f8c565b5060208201518160010160006101000a81548173ffffffffffffffffffffffffffffffffffffffff021916908373ffffffffffffffffffffffffffffffffffffffff16021790555060408201518160010160146101000a81548163ffffffff021916908363ffffffff1602179055509050507f42b2579282bfd66ed25adfcb2f08884c4e8467849a5053ae80c66623cd73a613600760009054906101000a900463ffffffff16600960009054906101000a900463ffffffff16336040516117d19392919061430d565b60405180910390a16007600081819054906101000a900463ffffffff16809291906117fb90614087565b91906101000a81548163ffffffff021916908363ffffffff16021790555050611825600554612799565b5061182e6128b0565b50565b600760009054906101000a900463ffffffff1681565b60006118516128c9565b905060008160000160089054906101000a900460ff1615905060008260000160009054906101000a900467ffffffffffffffff1690506000808267ffffffffffffffff1614801561189f5750825b9050600060018367ffffffffffffffff161480156118d4575060003073ffffffffffffffffffffffffffffffffffffffff163b145b9050811580156118e2575080155b15611919576040517ff92ee8a900000000000000000000000000000000000000000000000000000000815260040160405180910390fd5b60018560000160006101000a81548167ffffffffffffffff021916908367ffffffffffffffff16021790555083156119695760018560000160086101000a81548160ff0219169083151502179055505b61197387876128f1565b6000600960046101000a81548160ff0219169083151502179055506001600960006101000a81548163ffffffff021916908363ffffffff16021790555066038d7ea4c680006005819055508315611a1a5760008560000160086101000a81548160ff0219169083151502179055507fc7f505b2f371ae2175ee4913f4499e1f2633a7b5936321eed1cdaeb6115181d26001604051611a11919061439d565b60405180910390a15b50505050505050565b611a2b611e20565b611a33611ea7565b8260008190555081600181905550806002819055507f2894826e6558498e1dde97b7dd9f16a72afe0133fb00dc60ab3bf2d75576a323600054600154600254604051611a81939291906143b8565b60405180910390a1505050565b611a96611e20565b600073ffffffffffffffffffffffffffffffffffffffff168173ffffffffffffffffffffffffffffffffffffffff1603611b085760006040517f1e4fbdf7000000000000000000000000000000000000000000000000000000008152600401611aff91906138e8565b60405180910390fd5b611b1181612219565b50565b6000611b1f82611464565b611b5e576040517f08c379a0000000000000000000000000000000000000000000000000000000008152600401611b559061443b565b60405180910390fd5b60005b60068160ff161015611bde576000838260ff1660068110611b8557611b84613d8b565b5b602002015163ffffffff161080611bbc5750602d838260ff1660068110611baf57611bae613d8b565b5b602002015163ffffffff16115b15611bcb576000915050611be4565b8080611bd690614154565b915050611b61565b50600190505b919050565b611bf1611e20565b611bf9611ea7565b6064818385611c08919061411f565b611c12919061411f565b60ff1614611c55576040517f08c379a0000000000000000000000000000000000000000000000000000000008152600401611c4c906144a7565b60405180910390fd5b82600460006101000a81548160ff021916908360ff16021790555081600460016101000a81548160ff021916908360ff16021790555080600460026101000a81548160ff021916908360ff1602179055507f2a67f664c6a4cf35c0d00d41f88c08dff5774f0a86618595a568ed4fceea5a03600460009054906101000a900460ff16600460019054906101000a900460ff16600460029054906101000a900460ff16604051611d06939291906144c7565b60405180910390a1505050565b600080600090505b60068160ff161015611d8b57828160ff1660068110611d3d57611d3c613d8b565b5b602002015163ffffffff16848260ff1660068110611d5e57611d5d613d8b565b5b602002015163ffffffff1614611d78576000915050611d91565b8080611d8390614154565b915050611d1b565b50600190505b92915050565b600460009054906101000a900460ff1681565b60008160015410159050919050565b600960049054906101000a900460ff1681565b60066020528060005260406000206000915090508060010160009054906101000a900473ffffffffffffffffffffffffffffffffffffffff16908060010160149054906101000a900463ffffffff16905082565b611e28612a99565b73ffffffffffffffffffffffffffffffffffffffff16611e46611096565b73ffffffffffffffffffffffffffffffffffffffff1614611ea557611e69612a99565b6040517f118cdaa7000000000000000000000000000000000000000000000000000000008152600401611e9c91906138e8565b60405180910390fd5b565b611eaf610e0b565b15611ee6576040517fd93c066500000000000000000000000000000000000000000000000000000000815260040160405180910390fd5b565b611ef0612aa1565b6000611efa6121f1565b905060008160000160006101000a81548160ff0219169083151502179055507f5db9ee0a495bf2e6ff9c91a7834c1ba4fdd244a5e8aa4e537bd38aeae4b073aa611f42612a99565b604051611f4f91906138e8565b60405180910390a150565b7f000000000000000000000000000000000000000000000000000000000000000073ffffffffffffffffffffffffffffffffffffffff163073ffffffffffffffffffffffffffffffffffffffff16148061200757507f000000000000000000000000000000000000000000000000000000000000000073ffffffffffffffffffffffffffffffffffffffff16611fee612ae1565b73ffffffffffffffffffffffffffffffffffffffff1614155b1561203e576040517fe07c8dba00000000000000000000000000000000000000000000000000000000815260040160405180910390fd5b565b612048611e20565b50565b8173ffffffffffffffffffffffffffffffffffffffff166352d1902d6040518163ffffffff1660e01b8152600401602060405180830381865afa9250505080156120b357506040513d601f19601f820116820180604052508101906120b0919061452a565b60015b6120f457816040517f4c9c8ce30000000000000000000000000000000000000000000000000000000081526004016120eb91906138e8565b60405180910390fd5b7f360894a13ba1a3210667c828492db98dca3e2076cc3735a920a3ca505d382bbc60001b811461215b57806040517faa1d49a400000000000000000000000000000000000000000000000000000000815260040161215291906135d9565b60405180910390fd5b6121658383612b38565b505050565b7f000000000000000000000000000000000000000000000000000000000000000073ffffffffffffffffffffffffffffffffffffffff163073ffffffffffffffffffffffffffffffffffffffff16146121ef576040517fe07c8dba00000000000000000000000000000000000000000000000000000000815260040160405180910390fd5b565b60007fcd5ed15c6e187e77e9aee88184c21f4f2182ab5827cb3b7e07fbedcd63f03300905090565b6000612223612362565b905060008160000160009054906101000a900473ffffffffffffffffffffffffffffffffffffffff169050828260000160006101000a81548173ffffffffffffffffffffffffffffffffffffffff021916908373ffffffffffffffffffffffffffffffffffffffff1602179055508273ffffffffffffffffffffffffffffffffffffffff168173ffffffffffffffffffffffffffffffffffffffff167f8be0079c531659141344cd1fd0a4f28419497f9722a3daafe3b4186f6b6457e060405160405180910390a3505050565b6122f8611ea7565b60006123026121f1565b905060018160000160006101000a81548160ff0219169083151502179055507f62e78cea01bee320cd4e420270b5ea74000d11b0c9f74754ebdbfc544b05a25861234a612a99565b60405161235791906138e8565b60405180910390a150565b60007f9016d09d72d40fdae2fd8ceac6b6234c7706214fd39c1cd1e609a0528c199300905090565b60606000600760009054906101000a900463ffffffff1663ffffffff1667ffffffffffffffff8111156123c0576123bf613356565b5b6040519080825280602002602001820160405280156123ee5781602001602082028036833780820191505090505b5090506000806123fd85610c9d565b905060005b600760009054906101000a900463ffffffff1663ffffffff168163ffffffff1610156125bb578663ffffffff16600660008363ffffffff1663ffffffff16815260200190815260200160002060010160149054906101000a900463ffffffff1663ffffffff161480156125045750612503600660008363ffffffff1663ffffffff1681526020019081526020016000206000016006806020026040519081016040528092919082600680156124f8576020028201916000905b82829054906101000a900463ffffffff1663ffffffff16815260200190600401906020826003010492830192600103820291508084116124bb5790505b505050505083611d13565b5b156125ae57600660008263ffffffff1663ffffffff16815260200190815260200160002060010160009054906101000a900473ffffffffffffffffffffffffffffffffffffffff16848463ffffffff168151811061256557612564613d8b565b5b602002602001019073ffffffffffffffffffffffffffffffffffffffff16908173ffffffffffffffffffffffffffffffffffffffff168152505082806125aa90614087565b9350505b8080600101915050612402565b5060008263ffffffff1667ffffffffffffffff8111156125de576125dd613356565b5b60405190808252806020026020018201604052801561260c5781602001602082028036833780820191505090505b50905060005b8363ffffffff168163ffffffff1610156126a757848163ffffffff168151811061263f5761263e613d8b565b5b6020026020010151828263ffffffff16815181106126605761265f613d8b565b5b602002602001019073ffffffffffffffffffffffffffffffffffffffff16908173ffffffffffffffffffffffffffffffffffffffff16815250508080600101915050612612565b508094505050505092915050565b6126bd611e20565b600354600154106126f157600354600160008282546126dc9190613d23565b92505081905550600354600081905550612703565b60015460008190555060006001819055505b7ffd7d09cb778b79d09555ff1e6f59a71246c41b5ed64857edd7339eeb684c2e58600054600154604051612738929190614557565b60405180910390a1565b600061274c612bab565b9050600281600001540361278c576040517f3ee5aeb500000000000000000000000000000000000000000000000000000000815260040160405180910390fd5b6002816000018190555050565b60006064600460009054906101000a900460ff1660ff16836127bb9190614580565b6127c59190613fa4565b905060006064600460019054906101000a900460ff1660ff16846127e99190614580565b6127f39190613fa4565b905060006064600460029054906101000a900460ff1660ff16856128179190614580565b6128219190613fa4565b9050826000808282546128349190613d57565b92505081905550816001600082825461284d9190613d57565b9250508190555080600260008282546128669190613d57565b925050819055507f4a84c541883d5e3a186fc612fe1c9e852a101b85c7678a4a2bdbeb18dfec2473848484846040516128a294939291906145c2565b60405180910390a150505050565b60006128ba612bab565b90506001816000018190555050565b60007ff0c57e16840df040f15088dc2f81fe391c3923bec73e23a9662efc9c229c6a00905090565b60006128fb6128c9565b905060008160000160089054906101000a900460ff1615905060008260000160009054906101000a900467ffffffffffffffff1690506000808267ffffffffffffffff161480156129495750825b9050600060018367ffffffffffffffff1614801561297e575060003073ffffffffffffffffffffffffffffffffffffffff163b145b90508115801561298c575080155b156129c3576040517ff92ee8a900000000000000000000000000000000000000000000000000000000815260040160405180910390fd5b60018560000160006101000a81548167ffffffffffffffff021916908367ffffffffffffffff1602179055508315612a135760018560000160086101000a81548160ff0219169083151502179055505b612a1c86612bd3565b86600381905550600354600081905550612a34612be7565b8315612a905760008560000160086101000a81548160ff0219169083151502179055507fc7f505b2f371ae2175ee4913f4499e1f2633a7b5936321eed1cdaeb6115181d26001604051612a87919061439d565b60405180910390a15b50505050505050565b600033905090565b612aa9610e0b565b612adf576040517f8dfc202b00000000000000000000000000000000000000000000000000000000815260040160405180910390fd5b565b6000612b0f7f360894a13ba1a3210667c828492db98dca3e2076cc3735a920a3ca505d382bbc60001b612bf1565b60000160009054906101000a900473ffffffffffffffffffffffffffffffffffffffff16905090565b612b4182612bfb565b8173ffffffffffffffffffffffffffffffffffffffff167fbc7cd75a20ee27fd9adebab32041f755214dbc6bffa90cc0225b39da2e5c2d3b60405160405180910390a2600081511115612b9e57612b988282612cc8565b50612ba7565b612ba6612d4c565b5b5050565b60007f9b779b17422d0df92223018b32b4d1fa46e071723d6817e2486d003becc55f00905090565b612bdb612d89565b612be481612dc9565b50565b612bef612d89565b565b6000819050919050565b60008173ffffffffffffffffffffffffffffffffffffffff163b03612c5757806040517f4c9c8ce3000000000000000000000000000000000000000000000000000000008152600401612c4e91906138e8565b60405180910390fd5b80612c847f360894a13ba1a3210667c828492db98dca3e2076cc3735a920a3ca505d382bbc60001b612bf1565b60000160006101000a81548173ffffffffffffffffffffffffffffffffffffffff021916908373ffffffffffffffffffffffffffffffffffffffff16021790555050565b60606000808473ffffffffffffffffffffffffffffffffffffffff1684604051612cf29190614643565b600060405180830381855af49150503d8060008114612d2d576040519150601f19603f3d011682016040523d82523d6000602084013e612d32565b606091505b5091509150612d42858383612e4f565b9250505092915050565b6000341115612d87576040517fb398979f00000000000000000000000000000000000000000000000000000000815260040160405180910390fd5b565b612d91612ede565b612dc7576040517fd7e6bcf800000000000000000000000000000000000000000000000000000000815260040160405180910390fd5b565b612dd1612d89565b600073ffffffffffffffffffffffffffffffffffffffff168173ffffffffffffffffffffffffffffffffffffffff1603612e435760006040517f1e4fbdf7000000000000000000000000000000000000000000000000000000008152600401612e3a91906138e8565b60405180910390fd5b612e4c81612219565b50565b606082612e6457612e5f82612efe565b612ed6565b60008251148015612e8c575060008473ffffffffffffffffffffffffffffffffffffffff163b145b15612ece57836040517f9996b315000000000000000000000000000000000000000000000000000000008152600401612ec591906138e8565b60405180910390fd5b819050612ed7565b5b9392505050565b6000612ee86128c9565b60000160089054906101000a900460ff16905090565b600081511115612f115780518082602001fd5b6040517f1425ea4200000000000000000000000000000000000000000000000000000000815260040160405180910390fd5b6040518060c00160405280600690602082028036833780820191505090505090565b604051806060016040528060008152602001612f7f612f43565b8152602001606081525090565b82600660070160089004810192821561301e5791602002820160005b83821115612fec57835183826101000a81548163ffffffff021916908363ffffffff1602179055509260200192600401602081600301049283019260010302612fa8565b801561301c5782816101000a81549063ffffffff0219169055600401602081600301049283019260010302612fec565b505b50905061302b91906130b9565b5090565b8280548282559060005260206000209081019282156130a8579160200282015b828111156130a75782518260006101000a81548173ffffffffffffffffffffffffffffffffffffffff021916908373ffffffffffffffffffffffffffffffffffffffff1602179055509160200191906001019061304f565b5b5090506130b591906130b9565b5090565b5b808211156130d25760008160009055506001016130ba565b5090565b6000819050919050565b6130e9816130d6565b82525050565b600060208201905061310460008301846130e0565b92915050565b600060ff82169050919050565b6131208161310a565b82525050565b600060208201905061313b6000830184613117565b92915050565b6000604051905090565b600080fd5b600080fd5b61315e816130d6565b811461316957600080fd5b50565b60008135905061317b81613155565b92915050565b6000602082840312156131975761319661314b565b5b60006131a58482850161316c565b91505092915050565b600063ffffffff82169050919050565b6131c7816131ae565b81146131d257600080fd5b50565b6000813590506131e4816131be565b92915050565b600060208284031215613200576131ff61314b565b5b600061320e848285016131d5565b91505092915050565b600060069050919050565b600081905092915050565b6000819050919050565b613240816131ae565b82525050565b60006132528383613237565b60208301905092915050565b6000602082019050919050565b61327481613217565b61327e8184613222565b92506132898261322d565b8060005b838110156132ba5781516132a18782613246565b96506132ac8361325e565b92505060018101905061328d565b505050505050565b600060c0820190506132d7600083018461326b565b92915050565b600073ffffffffffffffffffffffffffffffffffffffff82169050919050565b6000613308826132dd565b9050919050565b613318816132fd565b811461332357600080fd5b50565b6000813590506133358161330f565b92915050565b600080fd5b600080fd5b6000601f19601f8301169050919050565b7f4e487b7100000000000000000000000000000000000000000000000000000000600052604160045260246000fd5b61338e82613345565b810181811067ffffffffffffffff821117156133ad576133ac613356565b5b80604052505050565b60006133c0613141565b90506133cc8282613385565b919050565b600067ffffffffffffffff8211156133ec576133eb613356565b5b6133f582613345565b9050602081019050919050565b82818337600083830152505050565b600061342461341f846133d1565b6133b6565b9050828152602081018484840111156134405761343f613340565b5b61344b848285613402565b509392505050565b600082601f8301126134685761346761333b565b5b8135613478848260208601613411565b91505092915050565b600080604083850312156134985761349761314b565b5b60006134a685828601613326565b925050602083013567ffffffffffffffff8111156134c7576134c6613150565b5b6134d385828601613453565b9150509250929050565b600067ffffffffffffffff8211156134f8576134f7613356565b5b602082029050919050565b600080fd5b600061351b613516846134dd565b6133b6565b9050806020840283018581111561353557613534613503565b5b835b8181101561355e578061354a88826131d5565b845260208401935050602081019050613537565b5050509392505050565b600082601f83011261357d5761357c61333b565b5b600661358a848285613508565b91505092915050565b600060c082840312156135a9576135a861314b565b5b60006135b784828501613568565b91505092915050565b6000819050919050565b6135d3816135c0565b82525050565b60006020820190506135ee60008301846135ca565b92915050565b60008115159050919050565b613609816135f4565b82525050565b60006020820190506136246000830184613600565b92915050565b6000806000606084860312156136435761364261314b565b5b60006136518682870161316c565b93505060206136628682870161316c565b92505060406136738682870161316c565b9150509250925092565b613686816131ae565b82525050565b613695816132fd565b82525050565b6000610160820190506136b1600083018e6130e0565b6136be602083018d61367d565b6136cb604083018c613600565b6136d8606083018b613600565b6136e5608083018a61367d565b6136f260a08301896130e0565b6136ff60c08301886130e0565b61370c60e08301876130e0565b61371a6101008301866130e0565b6137286101208301856130e0565b61373661014083018461368c565b9c9b505050505050505050505050565b61374f816130d6565b82525050565b600081905092915050565b61376981613217565b6137738184613755565b925061377e8261322d565b8060005b838110156137af5781516137968782613246565b96506137a18361325e565b925050600181019050613782565b505050505050565b600081519050919050565b600082825260208201905092915050565b6000819050602082019050919050565b6137ec816132fd565b82525050565b60006137fe83836137e3565b60208301905092915050565b6000602082019050919050565b6000613822826137b7565b61382c81856137c2565b9350613837836137d3565b8060005b8381101561386857815161384f88826137f2565b975061385a8361380a565b92505060018101905061383b565b5085935050505092915050565b60006101008301600083015161388e6000860182613746565b5060208301516138a16020860182613760565b50604083015184820360e08601526138b98282613817565b9150508091505092915050565b600060208201905081810360008301526138e08184613875565b905092915050565b60006020820190506138fd600083018461368c565b92915050565b600081519050919050565b600082825260208201905092915050565b60005b8381101561393d578082015181840152602081019050613922565b60008484015250505050565b600061395482613903565b61395e818561390e565b935061396e81856020860161391f565b61397781613345565b840191505092915050565b6000602082019050818103600083015261399c8184613949565b905092915050565b60006020820190506139b9600083018461367d565b92915050565b600080604083850312156139d6576139d561314b565b5b60006139e48582860161316c565b92505060206139f585828601613326565b9150509250929050565b600060208284031215613a1557613a1461314b565b5b6000613a2384828501613326565b91505092915050565b613a358161310a565b8114613a4057600080fd5b50565b600081359050613a5281613a2c565b92915050565b600080600060608486031215613a7157613a7061314b565b5b6000613a7f86828701613a43565b9350506020613a9086828701613a43565b9250506040613aa186828701613a43565b9150509250925092565b6000806101808385031215613ac357613ac261314b565b5b6000613ad185828601613568565b92505060c0613ae285828601613568565b9150509250929050565b6000604082019050613b01600083018561368c565b613b0e602083018461367d565b9392505050565b7f456c2070726563696f2064656c207469636b6574206465626520736572206d6160008201527f796f722071756520300000000000000000000000000000000000000000000000602082015250565b6000613b7160298361390e565b9150613b7c82613b15565b604082019050919050565b60006020820190508181036000830152613ba081613b64565b9050919050565b7f416e20617661696c61626c65207072696d6172792077656c6c2069732072657160008201527f75697265642e0000000000000000000000000000000000000000000000000000602082015250565b6000613c0360268361390e565b9150613c0e82613ba7565b604082019050919050565b60006020820190508181036000830152613c3281613bf6565b9050919050565b7f546865726520697320616c726561647920616e2061637469766520647261772060008201527f696e2070726f6772657373000000000000000000000000000000000000000000602082015250565b6000613c95602b8361390e565b9150613ca082613c39565b604082019050919050565b60006020820190508181036000830152613cc481613c88565b9050919050565b6000604082019050613ce0600083018561367d565b613ced60208301846130e0565b9392505050565b7f4e487b7100000000000000000000000000000000000000000000000000000000600052601160045260246000fd5b6000613d2e826130d6565b9150613d39836130d6565b9250828203905081811115613d5157613d50613cf4565b5b92915050565b6000613d62826130d6565b9150613d6d836130d6565b9250828201905080821115613d8557613d84613cf4565b5b92915050565b7f4e487b7100000000000000000000000000000000000000000000000000000000600052603260045260246000fd5b7f4e6f20616374697665206472617720696e2070726f6772657373000000000000600082015250565b6000613df0601a8361390e565b9150613dfb82613dba565b602082019050919050565b60006020820190508181036000830152613e1f81613de3565b9050919050565b7f57696e6e696e67206e756d62657273206d757374206265206265747765656e2060008201527f3020616e64203435000000000000000000000000000000000000000000000000602082015250565b6000613e8260288361390e565b9150613e8d82613e26565b604082019050919050565b60006020820190508181036000830152613eb181613e75565b9050919050565b600082825260208201905092915050565b6000613ed4826137b7565b613ede8185613eb8565b9350613ee9836137d3565b8060005b83811015613f1a578151613f0188826137f2565b9750613f0c8361380a565b925050600181019050613eed565b5085935050505092915050565b600061012082019050613f3d600083018761367d565b613f4a60208301866130e0565b613f57604083018561326b565b818103610100830152613f6a8184613ec9565b905095945050505050565b7f4e487b7100000000000000000000000000000000000000000000000000000000600052601260045260246000fd5b6000613faf826130d6565b9150613fba836130d6565b925082613fca57613fc9613f75565b5b828204905092915050565b600081905092915050565b50565b6000613ff0600083613fd5565b9150613ffb82613fe0565b600082019050919050565b600061401182613fe3565b9150819050919050565b7f5472616e7366657220746f2077696e6e6572206661696c656400000000000000600082015250565b600061405160198361390e565b915061405c8261401b565b602082019050919050565b6000602082019050818103600083015261408081614044565b9050919050565b6000614092826131ae565b915063ffffffff82036140a8576140a7613cf4565b5b600182019050919050565b7f496e76616c6964206e756d626572206f662063686f73656e206e756d62657273600082015250565b60006140e960208361390e565b91506140f4826140b3565b602082019050919050565b60006020820190508181036000830152614118816140dc565b9050919050565b600061412a8261310a565b91506141358361310a565b9250828201905060ff81111561414e5761414d613cf4565b5b92915050565b600061415f8261310a565b915060ff820361417257614171613cf4565b5b600182019050919050565b7f4e6f20616374697665206472617720617661696c61626c6520666f722074696360008201527f6b65742070757263686173650000000000000000000000000000000000000000602082015250565b60006141d9602c8361390e565b91506141e48261417d565b604082019050919050565b60006020820190508181036000830152614208816141cc565b9050919050565b7f496e636f72726563742045746865722076616c75652073656e74000000000000600082015250565b6000614245601a8361390e565b91506142508261420f565b602082019050919050565b6000602082019050818103600083015261427481614238565b9050919050565b7f43686f73656e206e756d62657273206d757374206265206265747765656e203060008201527f20616e6420343500000000000000000000000000000000000000000000000000602082015250565b60006142d760278361390e565b91506142e28261427b565b604082019050919050565b60006020820190508181036000830152614306816142ca565b9050919050565b6000606082019050614322600083018661367d565b61432f602083018561367d565b61433c604083018461368c565b949350505050565b6000819050919050565b600067ffffffffffffffff82169050919050565b6000819050919050565b600061438761438261437d84614344565b614362565b61434e565b9050919050565b6143978161436c565b82525050565b60006020820190506143b2600083018461438e565b92915050565b60006060820190506143cd60008301866130e0565b6143da60208301856130e0565b6143e760408301846130e0565b949350505050565b7f546865204e756d62657273206d75737420626520756e69717565000000000000600082015250565b6000614425601a8361390e565b9150614430826143ef565b602082019050919050565b6000602082019050818103600083015261445481614418565b9050919050565b7f50657263656e7461676573206d7573742061646420757020746f203130300000600082015250565b6000614491601e8361390e565b915061449c8261445b565b602082019050919050565b600060208201905081810360008301526144c081614484565b9050919050565b60006060820190506144dc6000830186613117565b6144e96020830185613117565b6144f66040830184613117565b949350505050565b614507816135c0565b811461451257600080fd5b50565b600081519050614524816144fe565b92915050565b6000602082840312156145405761453f61314b565b5b600061454e84828501614515565b91505092915050565b600060408201905061456c60008301856130e0565b61457960208301846130e0565b9392505050565b600061458b826130d6565b9150614596836130d6565b92508282026145a4816130d6565b915082820484148315176145bb576145ba613cf4565b5b5092915050565b60006080820190506145d760008301876130e0565b6145e460208301866130e0565b6145f160408301856130e0565b6145fe60608301846130e0565b95945050505050565b600081519050919050565b600061461d82614607565b6146278185613fd5565b935061463781856020860161391f565b80840191505092915050565b600061464f8284614612565b91508190509291505056fea2646970667358221220a7d05fcaa75983eb319ef0743a0f7f23658a31df4f0caec855eeb6849d0aaadb64736f6c63430008180033",
  "linkReferences": {},
  "deployedLinkReferences": {}
}